:100000000C94C7010C94E4010C94E4010C94E401F9
:100010000C94E4010C94E4010C94E4010C94E401CC
:100020000C94E4010C94E4010C94E4010C94E401BC
:100030000C94E4010C94E4010C94E4010C94E401AC
:100040000C94E4010C94E4010C94E4010C94E4019C
:100050000C94E4010C94E4010C94E4010C94E4018C
:100060000C94E4010C94E4010C94E4010C94E4017C
:100070000C94E4010C94E4010C94E4010C94E4016C
:100080000C94E4010C94E4010C94E4010C94E4015C
:100090000C94E4010C94E4010C94E4010C94E4014C
:1000A0000C94E4010C94E4010C94E4016E616E0084
:1000B000696E660000407A10F35A00A0724E18096B
:1000C0000010A5D4E80000E87648170000E40B54BF
:1000D000020000CA9A3B000000E1F505000080968E
:1000E0009800000040420F000000A08601000000C0
:1000F000102700000000E80300000000640000007A
:1001000000000A00000000000100000000002C7642
:10011000D888DC674F0823DFC1DFAE59E1B1B7965D
:10012000E5E3E453C63AE651997696E8E6C28426BA
:10013000EB898C9B62ED407C6FFCEFBC9C9F40F296
:10014000BAA56FA5F490055A2AF75C936B6CF96712
:100150006DC11BFCE0E40D47FEF520E6B500D0EDD7
:10016000902E0300943577050080841E080000203F
:100170004E0A000000C80C333333330F986E1283DD
:100180001141EF8D2114893BE65516CFFEE6DB18B1
:10019000D1844B381BF77C1D901DA4BBE424203276
:1001A00084725E228100C9F124ECA1E53D270000A4
:1001B00000000000005F00000007000700147F142B
:1001C0007F14242A7F2A1223130864623649552299
:1001D000500005030000001C2241000041221C00C9
:1001E00014083E081408083E0808005030000008B3
:1001F00008080808006060000020100804023E5152
:1002000049453E00427F40004261514946214145F7
:100210004B311814127F1027454545393C4A49494E
:100220003001710905033649494936064949291EF5
:100230000036360000005636000008142241001433
:100240001414141400412214080201510906324901
:1002500079413E7E1111117E7F494949363E414127
:1002600041227F4141221C7F494949417F090909B7
:10027000013E4149497A7F0808087F00417F4100DB
:100280002040413F017F081422417F404040407F91
:10029000020C027F7F0408107F3E4141413E7F09EE
:1002A0000909063E4151215E7F09192946464949FF
:1002B000493101017F01013F4040403F1F20402064
:1002C0001F3F4038403F6314081463070870080755
:1002D0006151494543007F4141000204081020005C
:1002E00041417F00040201020440404040400001BF
:1002F00002040020545454787F484444383844441D
:100300004420384444487F3854545418087E090126
:10031000020C5252523E7F0804047800447D400093
:100320002040443D007F1028440000417F40007C75
:10033000041804787C0804047838444444387C1455
:10034000141408081414187C7C0804040848545435
:100350005420043F4440203C4040207C1C2040204E
:100360001C3C4030403C44281028440C5050503C29
:100370004464544C44000836410000007F000000F3
:1003800041360800100808100878464146781124C4
:100390001FBECFEFDAE0DEBFCDBF11E0A0E0B1E0DD
:1003A000E6EBFEE102C005900D92A832B107D9F745
:1003B00023E0A8E2B1E001C01D92A132B207E1F74B
:1003C0000E9424020C94590F0C9400000F931F9369
:1003D000CF93DF93CDB7DEB7C055D1090FB6F894F0
:1003E000DEBF0FBECDBF80910001282F082E000C6C
:1003F000330B3F938F9380912801282F082E000CF8
:10040000330B3F938F9388E091E09F938F938E01FE
:100410000F5F1F4F1F930F930E94760EA80160E09D
:1004200080E00E94C0080FB6F894DEBF0FBECDBFBB
:10043000C05BDF4F0FB6F894DEBF0FBECDBFDF91BC
:10044000CF911F910F910895CF93DF93CDB7DEB772
:10045000AF970FB6F894DEBF0FBECDBF10BA1AB873
:100460008CE084B915B880E88093610081E08093C6
:1004700061008FE30E94F5080E94FC0642E151E012
:100480006FE085E00E94C0084FE151E069E185E03E
:100490000E94C0080E94E9062FEF83ED90E32150EF
:1004A00080409040E1F700C000000E94FC0680E21E
:1004B00090E00E944D0D80EE8EA78FA780910501E0
:1004C00090910601A09107018BA79CA7ADA70E9460
:1004D000480D4C010E94480D3C01CE018E965C01F6
:1004E00022E0C22E33E0E32E00E010E028EC31E4FD
:1004F00040E050E060EA70E448970E943E09C30182
:1005000060E370E00E949D0CBC01990F880B990B71
:100510000E94230B2B013C01C40164E570E00E94A2
:100520009D0CBC01990F880B990B0E94230BAB010A
:10053000BC01CE018B965C01E3E0CE2E93018201DB
:100540008A970E943E0980E090E0A0E8BFE38E8F8A
:100550009F8FA8A3B9A38AA39BA3ACA3BDA3412C3F
:10056000512CF8EA6F2EF2E47F2E812C912CA0E41E
:10057000AA2EA2E4BA2EC12CD12CB0E8EB2EB0E406
:10058000FB2E0E94FC060E94E601CE0146960E94C8
:100590006209CE0101960E9462098FB18FB1499B19
:1005A0000EC02AA13BA14CA15DA16A8D7B8D8C8DD3
:1005B0009D8D0E94F0096A8F7B8F8C8F9D8F489B49
:1005C0000EC02E8D3F8D48A159A16E897F89888DDF
:1005D000998D0E94F1096E8B7F8B888F998F199B63
:1005E0000EC02E8D3F8D48A159A16E897F89888DBF
:1005F000998D0E94F0096E8B7F8B888F998F83B1C4
:100600001F9B0EC02AA13BA14CA15DA16A8D7B8DD1
:100610008C8D9D8D0E94F1096A8F7B8F8C8F9D8FB1
:1006200020E030E040E85FEB6E897F89888D998D0E
:100630000E94740A811104C04E8A5F8A688E798E86
:1006400020E030E04AEA52E46E897F89888D998DF6
:100650000E94740A811104C01E8A1F8A188E198E86
:1006600020E030E040E450E46A8D7B8D8C8D9D8DE0
:100670000E94740A811104C08A8E9B8EAC8EBD8E3E
:1006800020E030E044E452E46A8D7B8D8C8D9D8DBA
:100690000E94740A811104C0CA8EDB8EEC8EFD8E1E
:1006A0002D813E814F8158856A8D7B8D8C8D9D8DEE
:1006B0000E94740A811111C029813A814B815C81A9
:1006C0006E897F89888D998D0E94740A811105C079
:1006D000809128018F5F809328010E94E9069FE79F
:1006E00028E381E0915020408040E1F700C0000005
:1006F00048CFA1E1B0E0EFE7F3E00C94B10C7C014E
:100700003B016A01FC0117821682838181FF37C396
:100710009E012F5F3F4F4901F7019381F30193FD44
:10072000859193FF81913F01882309F424C3853289
:1007300039F493FD859193FF81913F01853239F41E
:10074000B70190E00E94460E56016501E5CF10E02A
:10075000312C20E02032A0F48B3269F030F480326A
:1007600059F0833269F420612CC08D3239F0803326
:1007700039F4216026C02260246023C0286021C093
:1007800027FD27C030ED380F3A3078F426FF06C039
:10079000FAE01F9F300D1124132F13C08AE0389EFA
:1007A000300D1124332E20620CC08E3221F426FD30
:1007B000E2C2206406C08C3611F4206802C088367C
:1007C00041F4F30193FD859193FF81913F018111E4
:1007D000C1CF9BEB980F933018F42061805E06C068
:1007E0009BE9980F933008F066C12F7E26FF16E034
:1007F0002F73522E853619F42064522E08C0863687
:1008000021F4922F9068592E02C01111115057FEF9
:1008100007C01C3350F422242394210E27E00BC080
:10082000183038F027E017E005C027E09CE3292EB8
:1008300002C0212F212C5601E4E0AE0EB11CF601BE
:100840006081718182819381022DA4010E94580DE3
:100850006C0129812C8720FF02C023FF06C051FCB8
:1008600006C052FE06C000E205C00DE203C00BE266
:1008700001C000E08C858C7019F001115DC29EC230
:1008800057FE10C02C0C2C8524FF04C08A818133B4
:1008900009F42A94121474F538E0321578F588E0DA
:1008A000282E2CC056FC2AC0812F90E08C159D0567
:1008B0009CF08CEFC8168FEFD80674F0952D9068D9
:1008C000592E0AC0E2E0F0E0EC0FFD1FE10FF11D30
:1008D0008081803319F411501111F4CF57FE0EC0EE
:1008E00022242394210E812F90E0C816D9062CF4DF
:1008F0001C1904C02224239401C010E057FE06C036
:100900001C141D0434F4C601019605C085E090E076
:1009100002C081E090E001110196112331F0212FF6
:1009200030E02F5F3F4F820F931F232D30E082175F
:10093000930714F4381A01C0312C852D897049F4BD
:10094000332039F0B70180E290E00E94460E3A94DD
:10095000F7CF002329F0B701802F90E00E94460EC8
:1009600053FC09C0332039F0B70180E390E00E94C6
:10097000460E3A94F7CF57FE4DC02601D7FE02C06F
:10098000412C512CC6010196841995099401280F18
:10099000391F3E872D87960122193109388B2F8701
:1009A000012F10E01195019511093FEF43165306F1
:1009B00029F4B7018EE290E00E94460EC414D504DB
:1009C0004CF02F8538892415350524F4ED85FE85F6
:1009D000808101C080E3F1E04F1A51082D853E85EA
:1009E0002F5F3F4F3E872D87401651062CF0B701F1
:1009F00090E00E94460ED9CFC414D50441F49A81E8
:100A0000963320F4953319F43C8534FF81E3B70124
:100A100090E04EC08A81813319F02C852F7E2C877F
:100A2000B70190E00E94460E111105C054FC18C099
:100A300085E690E017C0B7018EE290E00E94460E76
:100A40001E5F82E001E0080FF401E80FF11D8081D4
:100A5000B70190E00E94460E802F0113F3CFE6CF3E
:100A600085E490E0B7010E94460ED7FC06C0C11491
:100A7000D10441F43C8534FF05C0D194C194D10820
:100A80008DE201C08BE2B70190E00E94460E80E348
:100A9000EAE0CE16D1042CF08F5F9AE0C91AD10893
:100AA000F7CFB70190E00E94460EB701C601C0968D
:100AB0000E94460E56C1833631F0833779F0833574
:100AC00009F058C021C05601F2E0AF0EB11CF6018A
:100AD0008081898301E010E0640114C05601F2E0D6
:100AE000AF0EB11CF601C080D18026FF03C0612F7C
:100AF00070E002C06FEF7FEFC601298B0E943B0EB2
:100B00008C0129892F7715C05601F2E0AF0EB11C78
:100B1000F601C080D18026FF03C0612F70E002C0C3
:100B20006FEF7FEFC601298B0E94300E8C0129895F
:100B30002068522E23FD1AC0832D90E00817190754
:100B4000A8F4B70180E290E00E94460E3A94F4CFF8
:100B5000F60157FC859157FE81916F01B70190E036
:100B60000E94460E31103A940150110901151105E9
:100B700079F7F7C0843611F0893659F5560127FF09
:100B800009C0F4E0AF0EB11CF60160817181828171
:100B900093810AC0F2E0AF0EB11CF6016081718151
:100BA000072E000C880B990B2F76522E97FF09C049
:100BB00090958095709561957F4F8F4F9F4F2068DE
:100BC000522E2AE030E0A4010E94980EC82EC818C8
:100BD0003FC0022F853721F40F7E2AE030E01DC090
:100BE000097F8F3691F018F4883559F0C4C08037EA
:100BF00019F0883711F0BFC0006104FF09C004601C
:100C000007C024FF08C0066006C028E030E005C029
:100C100020E130E002C020E132E0560107FF09C0C8
:100C2000F4E0AF0EB11CF601608171818281938185
:100C300008C0F2E0AF0EB11CF6016081718180E066
:100C400090E0A4010E94980EC82EC8180F77502E6D
:100C500056FE0BC0052D0E7FC11650F454FE0AC07F
:100C600052FC08C0052D0E7E05C0DC2C052D03C0EE
:100C7000DC2C01C0D12E04FF0DC0FE01EC0DF11DD6
:100C80008081803311F4097E09C002FF06C0D3942D
:100C9000D39404C0802F867809F0D39403FD11C04B
:100CA00000FF06C0D31488F43C0C132D1D190EC090
:100CB000D31460F4B70180E290E00E94460ED39412
:100CC000F7CFD31418F43D1802C01C2D312C04FFAB
:100CD00010C0B70180E390E00E94460E02FF17C0EB
:100CE00001FD03C088E790E002C088E590E0B7010D
:100CF0000CC0802F867859F001FF02C08BE201C042
:100D000080E207FD8DE2B70190E00E94460EC11619
:100D100038F4B70180E390E00E94460E1150F7CFFF
:100D2000CA94F401EC0DF11D8081B70190E00E949E
:100D3000460EC110F5CF15C0F4E0F31560F584E060
:100D4000381A53FE1FC0011127C03C8533FF2AC04B
:100D50000CEA10E0852D8071582EF80184918111E4
:100D600024C0332009F4F1CCB70180E290E00E9466
:100D7000460E3A94F6CFF7018681978126C08FEF11
:100D80009FEF23C0B70180E290E00E94460E3A94A4
:100D90003110F8CFD8CF312CB701802F90E00E94CE
:100DA000460ED3CF00EB10E0D5CF51108052B701E3
:100DB00090E00E94460E0F5F1F4FCFCF23E0231518
:100DC00010F483E0BDCF312CC0CF6196E2E10C94EA
:100DD000CD0CCF93DF9360E080E00E943209C9E23E
:100DE000D1E0699181E00E94D70883E0C132D80741
:100DF000C1F7DF91CF910895E9E2F1E0119283E02C
:100E0000E132F807D9F708958435D8F46033C8F48F
:100E1000E62FE695E695E695677094E5E99FF00183
:100E2000112490E0E80FF91FE75DFE4F442351F0D5
:100E300021E030E001C0220F6A95EAF78081822B21
:100E40008083089581E090E001C0880F6A95EAF7F9
:100E5000809590818923F4CF2F923F924F925F9299
:100E60006F927F928F929F92AF92BF92CF92DF92BA
:100E7000EF92FF920F931F93CF93DF93CDB7DEB71F
:100E80002D970FB6F894DEBF0FBECDBFF82E262EDD
:100E9000D42EE22E84132FC0C62ED12C022F10E0A8
:100EA0002E14E8F40C151D050CF00AC12D960FB692
:100EB000F894DEBF0FBECDBFDF91CF911F910F9190
:100EC000FF90EF90DF90CF90BF90AF909F908F906A
:100ED0007F906F905F904F903F902F900895C01635
:100EE000D10624F341E06C2D8F2D0E940407E1E030
:100EF000CE1AD108D5CF082F10E0242F30E03D873F
:100F00002C876E111DC0FD1468F48C859D8580179B
:100F1000910764F241E0622D802F0E9404070F5F69
:100F20001F4FF1CFEC85FD850E171F070CF4BECFC8
:100F300041E0622D802F0E94040701501109E3CF88
:100F40006C857D85601B710B072E000C880B990B3F
:100F50000E94230B2B013C012E2D30E03E832D837C
:100F6000312CB90162197309072E000C880B990BFB
:100F70000E94230B4B015C01A30192010E94790A9C
:100F800069837A838B839C8320E030E0A9010E94EF
:100F90002B0C87FF0BC0A3019201C501B40190582F
:100FA0000E94790A69837A838B839C83C12CD12C1C
:100FB000760120E030E0A901C301B2010E942B0CB0
:100FC00018160CF076C02C853D85201731070CF4DF
:100FD0006DCF0B8741E0622D802F0E94040729818D
:100FE0003A814B815C81C701B6010E94F1096B0116
:100FF0007C0120E030E040E05FE30E942B0C87FFA3
:101000000DC020E030E0A901C301B2010E942B0C09
:1010100018160CF44BC001501109CBCF20E030E082
:10102000A901C501B4010E942B0C1816CCF58D81C5
:101030009E81821593052CF341E0622D8B850E94E1
:10104000040781E090E098878F8320E030E0A901D9
:10105000C501B4010E942B0C181614F018861F82CB
:10106000E1E0F0E0FA87E98720E030E0A901C5017E
:10107000B4010E94740A87FD02C01A8619868F8106
:10108000988529853A85821B930B280E391E20E00E
:1010900030E040E85FE3C701B6010E94F009A7CF46
:1010A000ED81FE812E163F063CF6ABCF0F5F1F4F42
:1010B00080CF8C859D85081719070CF08ACFF6CE56
:1010C00041E06C2D8F2D0E9404079FEFC91AD90AA9
:1010D000E7CE7F928F929F92AF92BF92CF92DF9294
:1010E000EF92FF920F931F93CF93DF93882E762E6C
:1010F00050E04052510985E0849F6001859FD00CEB
:10110000112400E010E0AA24A394B12CC601800FA2
:10111000911F9C0122553E4F7901C0E0D0E0982CF0
:10112000900E18C0F7018491A5010C2E02C0440F47
:10113000551F0A94E2F790E0482359230C2E02C071
:10114000559547950A94E2F76C2F670D892D0E94FB
:1011500004072196C830D10529F70F5F1F4F0530CE
:101160001105A1F6DF91CF911F910F91FF90EF90A4
:10117000DF90CF90BF90AF909F908F907F90089519
:101180000F931F93CF93DF93C82FD62F8A01F801B7
:1011900041918F01411105C0DF91CF911F910F91B6
:1011A00008956D2F8C2F0E946908CB5FF0CF95B109
:1011B0009F7D40E2849F90011124922B95B95F9806
:1011C00087E090E070E08F989B01082E02C0359573
:1011D00027950A94E2F720FF06C02E9A8F9A01976E
:1011E00090F75F9A08952E98F9CFCF93C82F579A0A
:1011F000249A259A269A879A2C985F9A2C9A61E2CB
:1012000080E00E94D7086C2F606880E00E94D708B9
:1012100064E080E00E94D70863E180E00E94D70884
:101220006CE080E00E94D70860E280E00E94D7086E
:101230006CE080E00E94D70860E480E00E94D7085C
:1012400060E880E0CF910C94D708CF93DF93C8EF8C
:10125000D1E060E081E00E94D7082197D1F7DF91CB
:10126000CF910895CF93C82F606480E00E94D70883
:101270006C2F606880E0CF910C94D708AF92BF923A
:10128000CF92EF920F931F93FC01408351836283AF
:1012900073830483158326833783E08AC18AB48AE3
:1012A000A38A81E0828B10861186128613861486AB
:1012B0001586168617861F910F91EF90CF90BF90DD
:1012C000AF9008954F925F926F927F929F92AF92EC
:1012D000BF92CF92DF92EF92FF920F931F93CF9323
:1012E000DF93EC018A89882309F46AC0688970E079
:1012F00080E090E00E94230B20E030E040E05EE3DD
:101300000E94300C0E945D0A0E94F20A962EA12CC7
:101310008989A81608F054C0A99C60011124B12C39
:101320000D2C000CEE08FF0845C00B2D10E0B80195
:10133000012E000C880B990B0E94230B20E030E05B
:1013400040E05EE30E94300C0E945E0B2B013C01EA
:10135000C701B6010E94230BA30192010E94F1096B
:101360000E94EB0A2B893C89C901860F971FFC015B
:10137000408150E0009510950770112702C05595E7
:1013800047950A95E2F7142F11706C817D818E814B
:101390009F810E94F20A062F0A0D688179818A8155
:1013A0009B810E94F20A862F412F602F8B0D0E9495
:1013B0000407B3948889B81608F4B7CFA394A8CFCC
:1013C000DF91CF911F910F91FF90EF90DF90CF9021
:1013D000BF90AF909F907F906F905F904F900895D7
:1013E0005058BB27AA270E94080A0C94D90B0E94C8
:1013F000CB0B38F00E94D20B20F039F49F3F19F448
:1014000026F40C94C80B0EF4E095E7FB0C94990BB2
:10141000E92F0E94EA0B58F3BA1762077307840793
:10142000950720F079F4A6F50C94240C0EF4E095C1
:101430000B2EBA2FA02D0B01B90190010C01CA018E
:10144000A0011124FF27591B99F0593F50F4503E39
:1014500068F11A16F040A22F232F342F4427585F2B
:10146000F3CF469537952795A795F0405395C9F743
:101470007EF41F16BA0B620B730B840BBAF09150FB
:10148000A1F0FF0FBB1F661F771F881FC2F70EC09A
:10149000BA0F621F731F841F48F48795779567956D
:1014A000B795F7959E3F08F0B0CF9395880F08F059
:1014B0009927EE0F9795879508950E940C0C90F050
:1014C0009F3748F4911116F40C94250C60E070E0FD
:1014D00080E89FE3089526F01B16611D711D811D94
:1014E0000C949F0B0C94BA0B0E94750B08F481E0CE
:1014F00008950E948D0A0C94D90B0E94D20B58F0CB
:101500000E94CB0B40F029F45F3F29F00C94990B1B
:1015100051110C94250C0C94C80B0E94EA0B68F333
:101520009923B1F3552391F3951B550BBB27AA279C
:1015300062177307840738F09F5F5F4F220F331FD6
:10154000441FAA1FA9F335D00E2E3AF0E0E832D09E
:1015500091505040E695001CCAF72BD0FE2F29D0A1
:10156000660F771F881FBB1F261737074807AB0773
:10157000B0E809F0BB0B802DBF01FF2793585F4FE8
:101580003AF09E3F510578F00C94990B0C94250C81
:101590005F3FE4F3983ED4F3869577956795B795CA
:1015A000F7959F5FC9F7880F911D9695879597F9D5
:1015B0000895E1E0660F771F881FBB1F621773074E
:1015C0008407BA0720F0621B730B840BBA0BEE1F63
:1015D00088F7E09508950E94F20A6894B1110C947E
:1015E000250C08950E94F20B88F09F5798F0B92FB0
:1015F0009927B751B0F0E1F0660F771F881F991F48
:101600001AF0BA95C9F714C0B13091F00E94240CB9
:10161000B1E008950C94240C672F782F8827B85FC9
:1016200039F0B93FCCF3869577956795B395D9F79F
:101630003EF490958095709561957F4F8F4F9F4FA9
:101640000895E89409C097FB3EF4909580957095B5
:1016500061957F4F8F4F9F4F9923A9F0F92F96E9FE
:10166000BB279395F695879577956795B795F11173
:10167000F8CFFAF4BB0F11F460FF1BC06F5F7F4F10
:101680008F4F9F4F16C0882311F096E911C0772322
:1016900021F09EE8872F762F05C0662371F096E82B
:1016A000862F70E060E02AF09A95660F771F881FFA
:1016B000DAF7880F9695879597F908950E940C0C94
:1016C00090F09F3748F4911116F00C94250C60E0CF
:1016D00070E080E89FEB089526F41B16611D711DD4
:1016E000811D0C949F0B0C94BA0B990F0008550F99
:1016F000AA0BE0E8FEEF16161706E807F907C0F098
:1017000012161306E407F50798F0621B730B840B9F
:10171000950B39F40A2661F0232B242B252B21F479
:1017200008950A2609F4A140A6958FEF811D811D19
:10173000089597F99F6780E870E060E00895882336
:1017400071F4772321F09850872B762F07C06623FA
:1017500011F499270DC09051862B70E060E02AF0BB
:101760009A95660F771F881FDAF7880F96958795E9
:1017700097F908959F3F31F0915020F48795779520
:101780006795B795880F911D9695879597F9089558
:101790009FEF80EC089500240A9416161706180689
:1017A0000906089500240A94121613061406050665
:1017B0000895092E0394000C11F4882352F0BB0FF6
:1017C00040F4BF2B11F460FF04C06F5F7F4F8F4F59
:1017D0009F4F089557FD9058440F551F59F05F3F94
:1017E00071F04795880F97FB991F61F09F3F79F043
:1017F00087950895121613061406551FF2CF4695C5
:10180000F1DF08C0161617061806991FF1CF869546
:1018100071056105089408950E94F20BA0F0BEE7DF
:10182000B91788F4BB279F3860F41616B11D672FCF
:10183000782F8827985FF7CF869577956795B11DA4
:1018400093959639C8F30895E894BB2766277727C0
:10185000CB0197F908950E94750B08F48FEF089556
:101860000E94430C0C94D90B0E94CB0B38F00E94C1
:10187000D20B20F0952311F00C94990B0C94C80B0B
:1018800011240C94250C0E94EA0B70F3959FC1F370
:10189000950F50E0551F629FF001729FBB27F00D1E
:1018A000B11D639FAA27F00DB11DAA1F649F662773
:1018B000B00DA11D661F829F2227B00DA11D621FC2
:1018C000739FB00DA11D621F839FA00D611D221F7C
:1018D000749F3327A00D611D231F849F600D211D60
:1018E000822F762F6A2F11249F5750409AF0F1F0E3
:1018F00088234AF0EE0FFF1FBB1F661F771F881F4C
:1019000091505040A9F79E3F510580F00C94990BDF
:101910000C94250C5F3FE4F3983ED4F386957795BD
:101920006795B795F795E7959F5FC1F7FE2B880FF1
:10193000911D9695879597F9089597FB072E16F4B4
:10194000009407D077FD09D00E94E80C07FC05D071
:101950003EF4909581959F4F0895709561957F4FC6
:1019600008952F923F924F925F926F927F928F9243
:101970009F92AF92BF92CF92DF92EF92FF920F931E
:101980001F93CF93DF93CDB7DEB7CA1BDB0B0FB628
:10199000F894DEBF0FBECDBF09942A8839884888E5
:1019A0005F846E847D848C849B84AA84B984C8847B
:1019B000DF80EE80FD800C811B81AA81B981CE0F72
:1019C000D11D0FB6F894DEBF0FBECDBFED01089557
:1019D000AA1BBB1B51E107C0AA1FBB1FA617B70755
:1019E00010F0A61BB70B881F991F5A95A9F7809571
:1019F0009095BC01CD0108958F929F92AF92BF92B6
:101A0000CF92DF92EF92FF92CF93DF93EC01688148
:101A100079818A819B81611571058105910521F488
:101A200064E279ED8BE597E02DE133EF41E050E0A2
:101A30000E94F60E49015A019B01AC01A7EAB1E4EC
:101A40000E94150F6B017C01ACEEB4EFA50194016F
:101A50000E94230FDC01CB018C0D9D1DAE1DBF1D0F
:101A6000B7FF03C00197A109B04888839983AA836F
:101A7000BB839F77DF91CF91FF90EF90DF90CF9066
:101A8000BF90AF909F908F9008950E94FC0C089596
:101A900081E091E00E94FC0C0895A0E0B0E080930A
:101AA000010190930201A0930301B09304010895F2
:101AB000283008F027E03327DA01990F311D87FD20
:101AC000916000966105710539F432602E5F3D9397
:101AD00030E32A95E1F708959F3F30F08038710593
:101AE000610509F03C5F3C5F3D93913008F08068F0
:101AF000911DDF93CF931F930F93FF92EF92192FB6
:101B0000987F9695E92F96959695E90FFF27E25FC6
:101B1000FE4F99273327EE24FF24A701E701059004
:101B20000894079428F4360FE71EF81E491F511D2C
:101B3000660F771F881F991F0694A1F705900794D9
:101B400028F4E70EF81E491F561FC11D770F881F86
:101B5000991F661F0694A1F70590079428F4F80EC4
:101B6000491F561FC71FD11D880F991F661F771F5A
:101B70000694A1F70590079420F4490F561FC71F3C
:101B8000D81F990F661F771F881F0694A9F78491A5
:101B90001095177041F0D695C79557954795F794CE
:101BA000E7941A95C1F7E4EBF0E06894159015916D
:101BB00035916591959105907FE27395E118F10A51
:101BC000430B560BC90BD009C0F7E10CF11E431FA4
:101BD000561FC91FD01D7EF4703311F48A95E6CFCD
:101BE000E894015030F0080F0AF40027021708F4B7
:101BF000202F2395022F7A3328F079E37D932A95BD
:101C0000E9F710C07D932A9589F606949795679514
:101C1000379517951794E118F10A430B560BC90B2A
:101C2000D00998F023957E9173957A3308F070E38C
:101C30007C932013B8F77E9170617D9330F083958B
:101C400071E37D9370E32A95E1F71124EF90FF9003
:101C50000F911F91CF91DF91992787FD909508955E
:101C6000FC010590615070400110D8F78095909567
:101C70008E0F9F1F0895FC0161507040019001106C
:101C8000D8F7809590958E0F9F1F08950F931F93FF
:101C9000CF93DF93182F092FEB018B8181FD03C0B8
:101CA0008FEF9FEF1EC082FF0FC02E813F818C817E
:101CB0009D812817390774F4E881F981CF010196D5
:101CC00099838883108306C0E885F985812F09955B
:101CD000892B31F78E819F8101969F838E83812F7F
:101CE000902FDF91CF911F910F910895AEE0B0E05A
:101CF000ECE7FEE00C94BF0C0D891E8986E08C8316
:101D00001A8309838FEF9FE79E838D83AE01475E21
:101D10005F4F6F89788DCE0101960E947903EF8124
:101D2000F885E00FF11F10822E96E4E00C94DB0C96
:101D3000FA01AA27283051F1203181F1E8946F93FC
:101D40006E7F6E5F7F4F8F4F9F4FAF4FB1E03ED0A2
:101D5000B4E03CD0670F781F891F9A1FA11D680F40
:101D6000791F8A1F911DA11D6A0F711D811D911D73
:101D7000A11D20D009F468943F912AE0269F1124E8
:101D80003019305D3193DEF6CF010895462F47704C
:101D9000405D4193B3E00FD0C9F7F6CF462F4F70A7
:101DA000405D4A3318F0495D31FD4052419302D005
:101DB000A9F7EACFB4E0A6959795879577956795AB
:101DC000BA95C9F700976105710508959B01AC01AB
:101DD0000A2E06945795479537952795BA95C9F7D2
:101DE000620F731F841F951FA01D0895052E97FB7A
:101DF0001EF400940E940D0F57FD07D00E94280F7B
:101E000007FC03D04EF40C940D0F5095409530957F
:101E100021953F4F4F4F5F4F089590958095709556
:101E200061957F4F8F4F9F4F08950E944A0FA59F46
:101E3000900DB49F900DA49F800D911D11240895C5
:101E4000B7FF0C94150F0E94150F821B930B08957A
:101E5000A1E21A2EAA1BBB1BFD010DC0AA1FBB1FAE
:101E6000EE1FFF1FA217B307E407F50720F0A21B20
:101E7000B30BE40BF50B661F771F881F991F1A948D
:101E800069F760957095809590959B01AC01BD01B7
:101E9000CF010895A29FB001B39FC001A39F700D11
:101EA000811D1124911DB29F700D811D1124911D62
:061EB0000895F894FFCF35
:101EB6000301000000E0E0E02530326420282564BC
:101EC6002900456C696F74205768616C616E006EFD
:081ED600393434363830300095
:00000001FF
