:10000000D5C10000EFC10000EDC10000EBC1000050
:10001000E9C10000E7C10000E5C10000E3C1000044
:10002000E1C10000DFC10000DDC10000DBC1000054
:10003000D9C10000D7C10000D5C10000D3C1000064
:10004000D1C10000CFC10000CDC10000CBC1000074
:10005000C9C10000C7C10000C5C10000C3C1000084
:10006000C1C10000BFC10000BDC10000BBC1000094
:10007000B9C10000B7C10000B5C10000B3C10000A4
:10008000B1C10000AFC10000ADC10000ABC10000B4
:10009000A9C10000A7C10000A5C10000A3C10000C4
:1000A000A1C100009FC100009DC1000005A84CCD6A
:1000B000B2D44EB93836A9020C50B9918688083CA2
:1000C000A6AAAA2ABE000000803F6E616E00696E7B
:1000D000660000407A10F35A00A0724E1809001012
:1000E000A5D4E80000E87648170000E40B540200AD
:1000F00000CA9A3B000000E1F505000080969800D8
:10010000000040420F000000A08601000000102700
:1001100000000000E8030000000064000000000090
:100120000A00000000000100000000002C76D888C2
:10013000DC674F0823DFC1DFAE59E1B1B796E5E3D5
:10014000E453C63AE651997696E8E6C28426EB89EE
:100150008C9B62ED407C6FFCEFBC9C9F40F2BAA58B
:100160006FA5F490055A2AF75C936B6CF9676DC123
:100170001BFCE0E40D47FEF520E6B500D0ED902E27
:100180000300943577050080841E080000204E0A85
:10019000000000C80C333333330F986E12831141C3
:1001A000EF8D2114893BE65516CFFEE6DB18D1848E
:1001B0004B381BF77C1D901DA4BBE42420328472B5
:1001C0005E228100C9F124ECA1E53D27000000007A
:1001D0000000005F00000007000700147F147F1478
:1001E000242A7F2A122313086462364955225000BC
:1001F00005030000001C2241000041221C001408DD
:100200003E081408083E080800503000000808089E
:100210000808006060000020100804023E514945B3
:100220003E00427F400042615149462141454B31E9
:100230001814127F1027454545393C4A4949300179
:10024000710905033649494936064949291E0036D0
:100250003600000056360000081422410014141421
:10026000141400412214080201510906324979414F
:100270003E7E1111117E7F494949363E414141225E
:100280007F4141221C7F494949417F090909013EBB
:100290004149497A7F0808087F00417F410020409A
:1002A000413F017F081422417F404040407F020CC3
:1002B000027F7F0408107F3E4141413E7F090909CA
:1002C000063E4151215E7F09192946464949493177
:1002D00001017F01013F4040403F1F2040201F3F60
:1002E0004038403F631408146307087008076151E1
:1002F000494543007F41410002040810200041416C
:100300007F0004020102044040404040000102041A
:100310000020545454787F4844443838444444209E
:10032000384444487F3854545418087E0901020C5C
:100330005252523E7F0804047800447D4000204021
:10034000443D007F1028440000417F40007C041899
:1003500004787C0804047838444444387C14141429
:1003600008081414187C7C080404084854545420C9
:10037000043F4440203C4040207C1C2040201C3C4A
:100380004030403C44281028440C5050503C4464B9
:10039000544C44000836410000007F000000413604
:1003A00008001008081008784641467811241FBE3E
:1003B000CFEFDAE0DEBFCDBF12E0A0E0B1E0E0ECCD
:1003C000FFE102C005900D92A037B107D9F724E0F4
:1003D000A0E7B2E001C01D92A836B207E1F716D03F
:1003E0000C94DE0F0DCEE1E6F0E080E8808381E042
:1003F00080838CE084B98FE980BB80E48AB915B82A
:100400001BB88FE30E94F30B0C94390BECDF45E033
:1004100052E060E080E00E94BF0B0E94280BA3D056
:10042000FBD189D3FCCF4F925F926F927F928F92D4
:100430009F92AF92BF92CF92DF92EF92FF920F9373
:100440001F93CF93DF9300D000D0CDB7DEB78C01E0
:10045000DC011896CD90DD90ED90FC901B972D91CE
:100460003D914D915C91C701B601EBD62B013C014A
:10047000F801608371838283938384859585A68543
:10048000B78589839A83AB83BC8324813581468178
:100490005781BC01CD01D5D64B015C01D801149622
:1004A0006D937D938D939C93179750968C9164E5F3
:1004B00070E0681B7109072E000C880B990B2ED772
:1004C0009B01AC01C301B2010E94770A87FF08C0FB
:1004D00020E030E0A901C301B20117D787FF09C0AE
:1004E000F7FAF094F7F8F094F801C086D186E28626
:1004F000F386D80151968C9160E370E0681B710916
:10050000072E000C880B990B09D79B01AC01C50184
:10051000B401EDD787FF08C020E030E0A901C50194
:10052000B401F3D687FF0AC089819A81AB81BC816F
:10053000B058F80184879587A687B7870F900F90EA
:100540000F900F90DF91CF911F910F91FF90EF903F
:10055000DF90CF90BF90AF909F908F907F906F90E3
:100560005F904F900895AF92BF92CF92DF92EF923B
:10057000FF920F931F93CF93DF93CDB7DEB76597AD
:100580000FB6F894DEBF0FBECDBF0E94390B45E118
:1005900052E060E080E00E94BF0B41E252E068E080
:1005A00080E00E94BF0B0E94280B7D9BFECF2FE7AF
:1005B00088E391E0215080409040E1F700C00000C6
:1005C0007D99FECF2FEF84E39CE021508040904046
:1005D000E1F700C0000080E0A82E81E0B82E98E08E
:1005E000C92E28E0E22E00E010E09801B901A80130
:1005F000CE0101960E94240C69E874E58FE490E036
:100600000E94FC0D0E94F90D89D69B01AC0119D600
:100610002BED3FE049E450E46ED720E030E040E0CD
:1006200050E369D76B017C0174D669877A878B8721
:100630009C87C701B601C2D76D877E878F87988B4D
:100640007D9B27C00E94390B49E252E060E080E0C8
:100650000E94BF0BFDD72A9A7E9BFECF9FEF20E71B
:1006600082E0915020408040E1F700C000002A98CD
:1006700065960FB6F894DEBF0FBECDBFDF91CF9168
:100680001F910F91FF90EF90DF90CF90BF90AF90B0
:100690000895EFD7CE010196C6DECE0101960E94E5
:1006A000480CD6D78FE39CE90197F1F700C0000012
:1006B000C7CF2F923F924F925F926F927F928F920D
:1006C0009F92AF92BF92CF92DF92EF92FF920F93E1
:1006D0001F93CF93DF9300D000D000D0CDB7DEB70B
:1006E0007A8369831A0139011C830B8327019E8356
:1006F0008D83812C912C8B819C8188169906CCF05E
:1007000026960FB6F894DEBF0FBECDBFDF91CF9116
:100710001F910F91FF90EF90DF90CF90BF90AF901F
:100720009F908F907F906F905F904F903F902F9011
:100730000895C401B2010E94C90CFC01EE0FFF1F15
:1007400029813A81E20FF31FA080B180D301A80F65
:10075000B91FF101E80FF91FCC90E08000E010E034
:100760009801B901A8018D819E810E94240C0E94EC
:10077000F90DD4D59B01AC0164D52BED3FE049E4E4
:1007800050E4B9D620E030E040E050E3B4D66B014D
:100790007C01BFD5AD81BE8118966D937D938D93FD
:1007A0009C931B97C701B60109D7ED81FE81648731
:1007B000758786879787FFEF8F1A9F0A2D813E8165
:1007C0002B5E3F4F3E832D8396CF0F931F93CF9386
:1007D000DF93EC018C010E521F4FCE0124DE659693
:1007E000C017D107D1F7DF91CF911F910F910895D5
:1007F0000F931F93CF93DF93EC018C010E521F4F89
:10080000CE010E94480C6596C017D107C9F7DF9149
:10081000CF911F910F910895EF92FF920F931F9325
:10082000CF93DF93CDB7DEB7CE5DD1090FB6F89485
:10083000DEBF0FBECDBF1DD745E152E060E080E0D6
:100840009ED743E352E068E080E099D701D77E9BD2
:10085000FECF2FEF80E792E0215080409040E1F7FB
:1008600000C000007E99FECF2FEF84E39CE0215072
:1008700080409040E1F700C0000086E0E1EFF1E049
:10088000DE01AD52BF4F01900D928A95E1F7809144
:10089000F7019091F801A091F901C452DF4F8883CC
:1008A0009983AA83CC5DD0408091FA019091FB019D
:1008B000A091FC01C752DF4F88839983AA83C95D49
:1008C000D04069E874E58FE490E00E94FC0D83E07D
:1008D000E82EF12C0AE010E09E0127523F4FAE01B6
:1008E00044525F4FBE016D527F4FCE010196E1DE53
:1008F0007E9B2BC0BED649E252E060E080E03FD74D
:10090000A7D62FEF84E39CE0215080409040E1F790
:1009100000C000002A9A7E9BFECF2FEF80E792E076
:10092000215080409040E1F700C000002A98C25258
:10093000DF4F0FB6F894DEBF0FBECDBFDF91CF9172
:100940001F910F91FF90EF90089593D6CE010196DD
:100950003CDFCE0101964CDF7BD62FE788E391E0A8
:10096000215080409040E1F700C00000C1CF8F923D
:100970009F92AF92BF92CF92DF92EF92FF92CF936E
:10098000DF93EC01288539854A855B85688179810B
:100990008A819B8156D44B015C01688379838A8369
:1009A0009B832C853D854E855F856C817D818E8105
:1009B0009F8147D46B017C016C837D838E839F83F1
:1009C00020E030E048EA52E4C501B40190D587FD4B
:1009D0000EC0688970E0719561957109072E000C51
:1009E000880B990B9BD4688379838A839B8320E04F
:1009F00030E040E452E4C701B60179D587FD0EC06E
:100A0000698970E0719561957109072E000C880B5A
:100A1000990B84D46C837D838E839F83DF91CF91E8
:100A2000FF90EF90DF90CF90BF90AF909F908F900E
:100A30000895AF92BF92CF92DF92EF92FF920F9301
:100A40001F93CF93DF93CDB7DEB765970FB6F894BA
:100A5000DEBF0FBECDBF25ECA22E21E0B22E34E1C9
:100A6000C32E4DE0E42E00E010E020E631E440E04B
:100A700050E06CE072E4CE010196E6D680E090E0B2
:100A8000A0E8BFE389879A87AB87BC871D861E864F
:100A90001F86188AEED5CE010196FAD6D9D52A9AA4
:100AA0007E9BFECF2FEF80E792E021508040904068
:100AB000E1F700C000002A982A9AE12CF12C00E00E
:100AC00010E09AE0C92ED12C7D9B11C065960FB61F
:100AD000F894DEBF0FBECDBFDF91CF911F910F9174
:100AE000FF90EF90DF90CF90BF90AF900895C1D569
:100AF0002FEFE21AF20AC701B6014BD7892B69F42E
:100B00000F5F1F4F03701127F801EE0FFF1FE35017
:100B1000FE4F808191819D8B8C8BCE01019627DFCA
:100B2000CE010196B5D694D58FE39CE90197F1F7F4
:100B300000C00000C9CF9DD52B9A42E452E060E08E
:100B400080E01DD685D57D9BFECF2FEF80E792E01C
:100B5000215080409040E1F700C000007D99FECF19
:100B60002B9867DF86D52B9A43E552E060E080E062
:100B700006D64EE552E068E080E001D669D57D9B5F
:100B8000FECF2FEF80E792E0215080409040E1F7C8
:100B900000C000007D99FECF2B980895A1E1B0E040
:100BA000E3EDF5E009C77C013B016A01FC01178216
:100BB0001682838181FF1EC39E012F5F3F4F490133
:100BC000F7019381F30193FD859193FF81913F019B
:100BD000882309F40BC3853239F493FD859193FF83
:100BE00081913F01853239F4B70190E00E94F30E04
:100BF00056016501E5CF10E0312C20E02032A0F451
:100C00008B3269F030F4803259F0833269F420611C
:100C10002CC08D3239F0803339F4216026C0226037
:100C2000246023C0286021C027FD27C030ED380F85
:100C30003A3078F426FF06C0FAE01F9F300D1124E9
:100C4000132F13C08AE0389E300D1124332E2062FA
:100C50000CC08E3221F426FDC9C2206406C08C3639
:100C600011F4206802C0883641F4F30193FD8591A8
:100C700093FF81913F018111C1CF9BEB980F93307E
:100C800018F42061805E06C09BE9980F933008F04D
:100C900059C12F7E26FF16E02F73522E853619F488
:100CA0002064522E08C0863621F4922F9068592E67
:100CB00002C01111115057FE07C01C3350F42224FA
:100CC0002394210E27E00BC0183038F027E017E0FE
:100CD00005C027E09CE3292E02C0212F212C5601BC
:100CE000E4E0AE0EB11CF6016081718182819381D6
:100CF000022DA4018AD76C0129812C8720FF02C014
:100D000023FF06C051FC06C052FE06C000E205C02B
:100D10000DE203C00BE201C000E08C858C7019F07D
:100D2000011146C283C257FE10C02C0C2C8524FF33
:100D300004C08A81813309F42A94121474F538E0CE
:100D4000321578F588E0282E2CC056FC2AC0812F59
:100D500090E08C159D059CF08CEFC8168FEFD8069F
:100D600074F0952D9068592E0AC0E2E0F0E0EC0F87
:100D7000FD1FE10FF11D8081803319F41150111115
:100D8000F4CF57FE0EC022242394210E812F90E031
:100D9000C816D9062CF41C1904C02224239401C0BF
:100DA00010E057FE06C01C141D0434F4C601019661
:100DB00005C085E090E002C081E090E0011101965D
:100DC000112331F0212F30E02F5F3F4F820F931F0F
:100DD000232D30E08217930714F4381A01C0312C08
:100DE000852D897041F4332031F0B70180E290E025
:100DF000FAD73A94F8CF002321F0B701802F90E082
:100E0000F2D753FC08C0332031F0B70180E390E003
:100E1000EAD73A94F8CF57FE4BC02601D7FE02C05E
:100E2000412C512CC6010196841995099401280F73
:100E3000391F3E872D87960122193109388B2F875C
:100E4000012F10E01195019511093FEF431653064C
:100E500021F4B7018EE290E0C6D7C414D5044CF05B
:100E60002F8538892415350524F4ED85FE8580818C
:100E700001C080E3F1E04F1A51082D853E852F5FB8
:100E80003F4F3E872D874016510624F0B70190E072
:100E9000AAD7DBCFC414D50441F49A81963320F449
:100EA000953319F43C8534FF81E3B70190E048C0E5
:100EB0008A81813319F02C852F7E2C87B70190E031
:100EC00092D7111105C054FC16C085E690E015C0FC
:100ED000B7018EE290E087D71E5F82E001E0080F45
:100EE000F401E80FF11D8081B70190E07CD7802FDD
:100EF0000113F4CFE8CF85E490E0B70174D7D7FCB5
:100F000006C0C114D10441F43C8534FF05C0D1941E
:100F1000C194D1088DE201C08BE2B70190E063D7A4
:100F200080E3EAE0CE16D1042CF08F5F9AE0C91A74
:100F3000D108F7CFB70190E056D7B701C601C096E8
:100F400052D74BC1833631F0833779F0833509F0BE
:100F500054C020C05601F2E0AF0EB11CF6018081F2
:100F6000898301E010E0640113C05601F2E0AF0E86
:100F7000B11CF601C080D18026FF03C0612F70E054
:100F800002C06FEF7FEFC601298B22D78C01298920
:100F90002F7714C05601F2E0AF0EB11CF601C080ED
:100FA000D18026FF03C0612F70E002C06FEF7FEF9A
:100FB000C601298B02D78C0129892068522E23FD76
:100FC00018C0832D90E00817190798F4B70180E244
:100FD00090E009D73A94F5CFF60157FC859157FE7A
:100FE00081916F01B70190E0FED631103A94015023
:100FF00011090115110581F7F0C0843611F0893609
:1010000051F5560127FF09C0F4E0AF0EB11CF601FF
:1010100060817181828193810AC0F2E0AF0EB11CC0
:10102000F60160817181072E000C880B990B2F76D9
:10103000522E97FF09C090958095709561957F4FCE
:101040008F4F9F4F2068522E2AE030E0A401FBD63C
:10105000C82EC8183EC0022F853721F40F7E2AE023
:1010600030E01DC0097F8F3691F018F4883559F0B3
:10107000BDC0803719F0883711F0B8C0006104FF97
:1010800009C0046007C024FF08C0066006C028E04D
:1010900030E005C020E130E002C020E132E056013E
:1010A00007FF09C0F4E0AF0EB11CF6016081718149
:1010B0008281938108C0F2E0AF0EB11CF60160811D
:1010C000718180E090E0A401BED6C82EC8180F77C9
:1010D000502E56FE0BC0052D0E7FC11650F454FE47
:1010E0000AC052FC08C0052D0E7E05C0DC2C052D63
:1010F00003C0DC2C01C0D12E04FF0DC0FE01EC0D9D
:10110000F11D8081803311F4097E09C002FF06C001
:10111000D394D39404C0802F867809F0D39403FD30
:1011200010C000FF06C0D31480F43C0C132D1D1911
:101130000DC0D31458F4B70180E290E054D6D39494
:10114000F8CFD31418F43D1802C01C2D312C04FF25
:101150000FC0B70180E390E046D602FF16C001FD44
:1011600003C088E790E002C088E590E0B7010CC0BA
:10117000802F867851F001FF02C08BE201C080E22F
:1011800007FD8DE2B70190E02ED6C11630F4B7010D
:1011900080E390E028D61150F8CFCA94F401EC0D0A
:1011A000F11D8081B70190E01ED6C110F6CF15C0A9
:1011B000F4E0F31550F584E0381A53FE1EC0011117
:1011C00025C03C8533FF27C00AEC10E0852D8071D7
:1011D000582EF8018491811121C0332009F409CDE2
:1011E000B70180E290E0FFD53A94F7CFF70186810E
:1011F000978123C08FEF9FEF20C0B70180E290E07E
:10120000F2D53A943110F9CFDACF312CB701802FD3
:1012100090E0E9D5D6CF0EEC10E0D8CF5110805237
:10122000B70190E0E0D50F5F1F4FD3CF23E0231528
:1012300010F483E0C1CF312CC4CF6196E2E1D8C372
:101240005058BB27AA270ED007C1D0D030F0D5D038
:1012500020F031F49F3F11F41EF4C5C00EF4E09568
:10126000E7FBBBC0E92F1AD180F3BA1762077307F7
:101270008407950718F071F49EF532C10EF4E095DD
:101280000B2EBA2FA02D0B01B90190010C01CA0140
:10129000A0011124FF27591B99F0593F50F4503EEB
:1012A00068F11A16F040A22F232F342F4427585FDD
:1012B000F3CF469537952795A795F0405395C9F7F5
:1012C0007EF41F16BA0B620B730B840BBAF09150AD
:1012D000A1F0FF0FBB1F661F771F881FC2F70EC04C
:1012E000BA0F621F731F841F48F48795779567951F
:1012F000B795F7959E3F08F0B3CF9395880F08F008
:101300009927EE0F97958795089543D008F481E0CB
:1013100008957BD0E395B1C0E89409C097FB3EF4F3
:1013200090958095709561957F4F8F4F9F4F992332
:10133000A9F0F92F96E9BB279395F69587957795B0
:101340006795B795F111F8CFFAF4BB0F11F460FF70
:101350001BC06F5F7F4F8F4F9F4F16C0882311F0C8
:1013600096E911C0772321F09EE8872F762F05C0DC
:10137000662371F096E8862F70E060E02AF09A9577
:10138000660F771F881FDAF7880F9695879597F96C
:101390000895990F0008550FAA0BE0E8FEEF161606
:1013A0001706E807F907C0F012161306E407F50759
:1013B00098F0621B730B840B950B39F40A2661F0CD
:1013C000232B242B252B21F408950A2609F4A14070
:1013D000A6958FEF811D811D089597F99F6780E87D
:1013E00070E060E008959FEF80EC089500240A9477
:1013F0001616170618060906089500240A941216F0
:101400001306140605060895EECF50D0E8F3E894CD
:10141000E0E0BB279F57F0F02AED3FE049EC06C023
:10142000EE0FBB0F661F771F881F28F0B23A6207C6
:101430007307840728F0B25A620B730B840BE39591
:101440009A9572F7803830F49A95BB0F661F771F14
:10145000881FD2F79048BAC0092E0394000C11F4EB
:10146000882352F0BB0F40F4BF2B11F460FF04C07F
:101470006F5F7F4F8F4F9F4F0895EF93E0FF06C040
:10148000A2EA2AED3FE049EC5FEBECDEE5DF0F90EE
:10149000039401FC9058ECEAF0E0A4C057FD90588A
:1014A000440F551F59F05F3F71F04795880F97FB28
:1014B000991F61F09F3F79F08795089512161306E2
:1014C0001406551FF2CF4695F1DF08C01616170611
:1014D0001806991FF1CF8695710561050894089546
:1014E000E894BB2766277727CB0197F9089551DF4A
:1014F00008F48FEF08950BD0AFCF78DF28F07DDFB1
:1015000018F0952309F069CF6ECF1124EACFC6DF1A
:10151000A0F3959FD1F3950F50E0551F629FF00106
:10152000729FBB27F00DB11D639FAA27F00DB11D5F
:10153000AA1F649F6627B00DA11D661F829F2227E8
:10154000B00DA11D621F739FB00DA11D621F839F6F
:10155000A00D611D221F749F3327A00D611D231F45
:10156000849F600D211D822F762F6A2F11249F5793
:1015700050408AF0E1F088234AF0EE0FFF1FBB1FB6
:10158000661F771F881F91505040A9F79E3F510555
:1015900070F023CFA6CF5F3FECF3983EDCF3869547
:1015A00077956795B795F795E7959F5FC1F7FE2B00
:1015B000880F911D9695879597F908959F9325DF3C
:1015C0000F9007FCEE5F59CF9F3F31F0915020F410
:1015D000879577956795B795880F911D969587950F
:1015E00097F908959F938F937F936F93FF93EF9352
:1015F0009B01AC0180DFEF91FF9105D02F913F91CE
:101600004F915F9178CFDF93CF931F930F93FF920A
:10161000EF92DF927B018C01689405C0DA2EEF0116
:1016200076DFFE01E894A59125913591459155917C
:10163000AEF3EF0117DEFE019701A801DA9479F706
:10164000DF90EF90FF900F911F91CF91DF91089560
:10165000CF93DF9360E080E0EDD0C0E7D2E0699106
:1016600081E0A3D084E0C836D807C9F7DF91CF91D5
:101670000895E0E7F2E0119284E0E836F807D9F740
:1016800008958435D8F46033C8F4E62FE695E695DE
:10169000E695677094E5E99FF001112490E0E80F6A
:1016A000F91FE059FD4F442351F021E030E001C023
:1016B000220F6A95EAF78081822B8083089581E06A
:1016C00090E001C0880F6A95EAF7809590818923A0
:1016D000F4CF7F928F929F92AF92BF92CF92DF9280
:1016E000EF92FF920F931F93CF93DF93882E762E66
:1016F00050E04052510985E0849F6001859FD00CE5
:10170000112400E010E0AA24A394B12CC601800F9C
:10171000911F9C0124533E4F7901C0E0D0E0982CEA
:10172000900E17C0F7018491A5010C2E02C0440F42
:10173000551F0A94E2F790E0482359230C2E02C06B
:10174000559547950A94E2F76C2F670D892D99DF1F
:101750002196C830D10531F70F5F1F4F05301105B5
:10176000A9F6DF91CF911F910F91FF90EF90DF903D
:10177000CF90BF90AF909F908F907F9008950F93E0
:101780001F93CF93DF93C82FD62F8A01F801419181
:101790008F01411105C0DF91CF911F910F910895E5
:1017A0006D2F8C2F96DFCB5FF1CF95B19F7D40E2FF
:1017B000849F90011124922B95B95F9887E090E067
:1017C00070E08F989B01082E02C0359527950A94EA
:1017D000E2F720FF06C02E9A8F9A019790F75F9A42
:1017E00008952E98F9CFCF93C82F579A249A259A07
:1017F000269A879A2C985F9A2C9A61E280E0D5DF2E
:101800006C2F606880E0D1DF64E080E0CEDF63E1D0
:1018100080E0CBDF6CE080E0C8DF60E280E0C5DF25
:101820006CE080E0C2DF60E480E0BFDF60E880E081
:10183000CF91BBCFCF93C82F606480E0B6DF6C2F11
:10184000606880E0CF91B1CFAF92BF92CF92EF921C
:101850000F931F93FC01408351836283738304833E
:10186000158326833783E08AC18AB48AA38A81E0FC
:10187000828B10861186128613861486158616862C
:1018800017861F910F91EF90CF90BF90AF90089562
:101890004F925F926F927F929F92AF92BF92CF9240
:1018A000DF92EF92FF920F931F93CF93DF93EC01A0
:1018B0008A89882309F45DC0688970E080E090E03F
:1018C0002DDD20E030E040E05EE315DEC0D0D7D073
:1018D000962EA12C8989A81608F04BC0A99C6001FE
:1018E0001124B12C0D2C000CEE08FF083CC00B2D70
:1018F00010E0B801012E000C880B990B0FDD20E0E1
:1019000030E040E05EE3F7DDE6D02B013C01C701AB
:10191000B60104DDA301920194DCACD02B893C8993
:10192000C901860F971FFC01408150E0009510957A
:101930000770112702C0559547950A95E2F7142FB5
:1019400011706C817D818E819F8199D0062F0A0D47
:10195000688179818A819B8192D0862F412F602F67
:101960008B0D8FDEB3948889B81608F4C0CFA3948A
:10197000B1CFDF91CF911F910F91FF90EF90DF904A
:10198000CF90BF90AF909F907F906F905F904F905F
:10199000089597FB072E16F4009406D077FD08D023
:1019A00042D007FC05D03EF4909581959F4F089555
:1019B000709561957F4F08952F923F924F925F925D
:1019C0006F927F928F929F92AF92BF92CF92DF924F
:1019D000EF92FF920F931F93CF93DF93CDB7DEB7B4
:1019E000CA1BDB0B0FB6F894DEBF0FBECDBF099448
:1019F0002A88398848885F846E847D848C849B849F
:101A0000AA84B984C884DF80EE80FD800C811B81AC
:101A1000AA81B981CE0FD11D0FB6F894DEBF0FBEDB
:101A2000CDBFED010895AA1BBB1B51E107C0AA1F42
:101A3000BB1FA617B70710F0A61BB70B881F991F6F
:101A40005A95A9F780959095BC01CD01089571D064
:101A500080F09F3740F491110EF443CD60E070E0C8
:101A600080E89FE3089526F01B16611D711D811DFE
:101A700045C0AACD04D06894B11133CD089516DDC8
:101A800088F09F5790F0B92F9927B751A0F0D1F067
:101A9000660F771F881F991F1AF0BA95C9F712C0F1
:101AA000B13081F01DDDB1E008951ACD672F782F98
:101AB0008827B85F39F0B93FCCF38695779567955D
:101AC000B395D9F73EF490958095709561957F4FC9
:101AD0008F4F9F4F08952DD080F09F3740F4911184
:101AE0000EF0FFCC60E070E080E89FEB089526F4F4
:101AF0001B16611D711D811D01C066CD882371F407
:101B0000772321F09850872B762F07C0662311F496
:101B100099270DC09051862B70E060E02AF09A95CD
:101B2000660F771F881FDAF7880F9695879597F9C4
:101B30000895BCDCA0F0BEE7B91788F4BB279F3836
:101B400060F41616B11D672F782F8827985FF7CF9E
:101B5000869577956795B11D93959639C8F3089545
:101B60008F929F92AF92BF92CF92DF92EF92FF92AD
:101B7000CF93DF93EC01688179818A819B81611524
:101B800071058105910521F464E279ED8BE597E01B
:101B90002DE133EF41E050E0B4D149015A019B01FE
:101BA000AC01A7EAB1E4C9D16B017C01ACEEB4EFA2
:101BB000A5019401CED1DC01CB018C0D9D1DAE1D84
:101BC000BF1DB7FF03C00197A109B048888399835F
:101BD000AA83BB83BC01CD019F77DF91CF91FF909A
:101BE000EF90DF90CF90BF90AF909F908F9008952F
:101BF000B7CF8DEE91E0B4CF6093ED017093EE011D
:101C00008093EF019093F0010895283008F027E0C9
:101C10003327DA01990F311D87FD91600096610528
:101C2000710539F432602E5F3D9330E32A95E1F778
:101C300008959F3F30F080387105610509F03C5FE1
:101C40003C5F3D93913008F08068911DDF93CF9306
:101C50001F930F93FF92EF92192F987F9695E92F7C
:101C600096959695E90FFF27E45DFE4F9927332758
:101C7000EE24FF24A701E70105900894079428F4B7
:101C8000360FE71EF81E491F511D660F771F881F6C
:101C9000991F0694A1F70590079428F4E70EF81E03
:101CA000491F561FC11D770F881F991F661F069475
:101CB000A1F70590079428F4F80E491F561FC71F77
:101CC000D11D880F991F661F771F0694A1F70590F5
:101CD000079420F4490F561FC71FD81F990F661F7E
:101CE000771F881F0694A9F784911095177041F00B
:101CF000D695C79557954795F794E7941A95C1F7E8
:101D0000E2EDF0E06894159015913591659195910B
:101D100005907FE27395E118F10A430B560BC90B4E
:101D2000D009C0F7E10CF11E431F561FC91FD01D7B
:101D30007EF4703311F48A95E6CFE894015030F0C8
:101D4000080F0AF40027021708F4202F2395022F0A
:101D50007A3328F079E37D932A95E9F710C07D93D3
:101D60002A9589F606949795679537951795179450
:101D7000E118F10A430B560BC90BD00998F02395D3
:101D80007E9173957A3308F070E37C932013B8F753
:101D90007E9170617D9330F0839571E37D9370E364
:101DA0002A95E1F71124EF90FF900F911F91CF91A9
:101DB000DF91992787FD90950895FC01059061506A
:101DC00070400110D8F7809590958E0F9F1F089551
:101DD000FC016150704001900110D8F780959095FA
:101DE0008E0F9F1F08950F931F93CF93DF93182F8C
:101DF000092FEB018B8181FD03C08FEF9FEF1EC088
:101E000082FF0FC02E813F818C819D812817390769
:101E100074F4E881F981CF01019699838883108356
:101E200006C0E885F985812F0995892B31F78E81C8
:101E30009F8101969F838E83812F902FDF91CF9179
:101E40001F910F910895FA01AA27283051F12031EE
:101E500081F1E8946F936E7F6E5F7F4F8F4F9F4F3E
:101E6000AF4FB1E03ED0B4E03CD0670F781F891F80
:101E70009A1FA11D680F791F8A1F911DA11D6A0F4E
:101E8000711D811D911DA11D20D009F468943F9101
:101E90002AE0269F11243019305D3193DEF6CF0100
:101EA0000895462F4770405D4193B3E00FD0C9F7C6
:101EB000F6CF462F4F70405D4A3318F0495D31FD33
:101EC0004052419302D0A9F7EACFB4E0A695979586
:101ED000879577956795BA95C9F70097610571055C
:101EE00008959B01AC010A2E0694579547953795A6
:101EF0002795BA95C9F7620F731F841F951FA01D00
:101F00000895052E97FB16F400940FD057FD05D0C9
:101F100024D007FC02D046F408C050954095309577
:101F200021953F4F4F4F5F4F089590958095709545
:101F300061957F4F8F4F9F4F089531D0A59F900D92
:101F4000B49F900DA49F800D911D11240895B7FF9B
:101F5000F4CFF3DF821B930B0895A1E21A2EAA1B84
:101F6000BB1BFD010DC0AA1FBB1FEE1FFF1FA21749
:101F7000B307E407F50720F0A21BB30BE40BF50B46
:101F8000661F771F881F991F1A9469F760957095CF
:101F9000809590959B01AC01BD01CF010895A29F52
:101FA000B001B39FC001A39F700D811D1124911D2D
:101FB000B29F700D811D1124911D0895F894FFCFDB
:101FC000FF818181818181FFFF818181818181FF09
:101FD000F8888888F8FFF0801080108010801080CA
:101FE000108010FFF00F80088008800F800200072B
:101FF000000A801280124012200200030002C00278
:102000002002C003000E0012001200038007C0046B
:1020100040044007C0010003800D40312012180425
:10202000000400070004C002300108011001200272
:102030003804000E000F80088008800F800200071F
:10204000000A8012801240122002000700050004DE
:102050008008400820102010202020383803E0029B
:1020600020022003E0008001C006A018900898011B
:10207000000100038002400220021002080C103010
:1020800010202000380F80088008800F8002000F89
:1020900080124022204210820802000500088008B9
:1020A0008008801040104020202020E038010000EF
:1020B0000008011001150108050C08050875019DAF
:1020C0000125014D0148656C6C6F2043414232305F
:1020D0003221212100436C69636B20726967687447
:1020E00000746F20706C61790047616D65204F76D8
:1020F000657200746F20706C6179203130207371CB
:102100002E00436C69636B20746F2077616C6B2EBB
:102110002E2E0057616C6B206F7665722E00436C1B
:1021200069636B20746F20657869742E2E2E000011
:00000001FF
