:100000000C94C7010C94E4010C94E4010C94E401F9
:100010000C94E4010C94E4010C94E4010C94E401CC
:100020000C94E4010C94E4010C94E4010C94E401BC
:100030000C94E4010C94E4010C94E4010C94E401AC
:100040000C94E4010C94E4010C94E4010C94E4019C
:100050000C94E4010C94E4010C94E4010C94E4018C
:100060000C94E4010C94E4010C94E4010C94E4017C
:100070000C94E4010C94E4010C94E4010C94E4016C
:100080000C94E4010C94E4010C94E4010C94E4015C
:100090000C94E4010C94E4010C94E4010C94E4014C
:1000A0000C94E4010C94E4010C94E4016E616E0084
:1000B000696E660000407A10F35A00A0724E18096B
:1000C0000010A5D4E80000E87648170000E40B54BF
:1000D000020000CA9A3B000000E1F505000080968E
:1000E0009800000040420F000000A08601000000C0
:1000F000102700000000E80300000000640000007A
:1001000000000A00000000000100000000002C7642
:10011000D888DC674F0823DFC1DFAE59E1B1B7965D
:10012000E5E3E453C63AE651997696E8E6C28426BA
:10013000EB898C9B62ED407C6FFCEFBC9C9F40F296
:10014000BAA56FA5F490055A2AF75C936B6CF96712
:100150006DC11BFCE0E40D47FEF520E6B500D0EDD7
:10016000902E0300943577050080841E080000203F
:100170004E0A000000C80C333333330F986E1283DD
:100180001141EF8D2114893BE65516CFFEE6DB18B1
:10019000D1844B381BF77C1D901DA4BBE424203276
:1001A00084725E228100C9F124ECA1E53D270000A4
:1001B00000000000005F00000007000700147F142B
:1001C0007F14242A7F2A1223130864623649552299
:1001D000500005030000001C2241000041221C00C9
:1001E00014083E081408083E0808005030000008B3
:1001F00008080808006060000020100804023E5152
:1002000049453E00427F40004261514946214145F7
:100210004B311814127F1027454545393C4A49494E
:100220003001710905033649494936064949291EF5
:100230000036360000005636000008142241001433
:100240001414141400412214080201510906324901
:1002500079413E7E1111117E7F494949363E414127
:1002600041227F4141221C7F494949417F090909B7
:10027000013E4149497A7F0808087F00417F4100DB
:100280002040413F017F081422417F404040407F91
:10029000020C027F7F0408107F3E4141413E7F09EE
:1002A0000909063E4151215E7F09192946464949FF
:1002B000493101017F01013F4040403F1F20402064
:1002C0001F3F4038403F6314081463070870080755
:1002D0006151494543007F4141000204081020005C
:1002E00041417F00040201020440404040400001BF
:1002F00002040020545454787F484444383844441D
:100300004420384444487F3854545418087E090126
:10031000020C5252523E7F0804047800447D400093
:100320002040443D007F1028440000417F40007C75
:10033000041804787C0804047838444444387C1455
:10034000141408081414187C7C0804040848545435
:100350005420043F4440203C4040207C1C2040204E
:100360001C3C4030403C44281028440C5050503C29
:100370004464544C44000836410000007F000000F3
:1003800041360800100808100878464146781124C4
:100390001FBECFEFDAE0DEBFCDBF11E0A0E0B1E0DD
:1003A000EAE3F6E102C005900D92AA32B107D9F74F
:1003B00023E0AAE2B1E001C01D92A232B207E1F748
:1003C0000E94E6010C941B0B0C940000E1E6F0E0A7
:1003D00080E8808381E080838FE30E9484070E940D
:1003E0008B0540E051E065E085E00E944F0740E169
:1003F00051E06FE085E00E944F074CE151E069E178
:1004000085E00E944F070E94780580E090E0089503
:10041000A1E1B0E0EEE0F2E00C9468097C013B0160
:100420006A01FC0117821682838181FF37C39E0116
:100430002F5F3F4F4901F7019381F30193FD8591B0
:1004400093FF81913F01882309F424C3853239F455
:1004500093FD859193FF81913F01853239F4B70176
:1004600090E00E948D0A56016501E5CF10E0312C25
:1004700020E02032A0F48B3269F030F4803259F061
:10048000833269F420612CC08D3239F0803339F425
:10049000216026C02260246023C0286021C027FD7F
:1004A00027C030ED380F3A3078F426FF06C0FAE066
:1004B0001F9F300D1124132F13C08AE0389E300D7A
:1004C0001124332E20620CC08E3221F426FDE2C2AC
:1004D000206406C08C3611F4206802C0883641F4CE
:1004E000F30193FD859193FF81913F018111C1CF6C
:1004F0009BEB980F933018F42061805E06C09BE957
:10050000980F933008F066C12F7E26FF16E02F73F8
:10051000522E853619F42064522E08C0863621F4F6
:10052000922F9068592E02C01111115057FE07C02A
:100530001C3350F422242394210E27E00BC01830E2
:1005400038F027E017E005C027E09CE3292E02C021
:10055000212F212C5601E4E0AE0EB11CF601608182
:10056000718182819381022DA4010E949F096C01F7
:1005700029812C8720FF02C023FF06C051FC06C042
:1005800052FE06C000E205C00DE203C00BE201C04E
:1005900000E08C858C7019F001115DC29EC257FE7F
:1005A00010C02C0C2C8524FF04C08A81813309F4EF
:1005B0002A94121474F538E0321578F588E0282E64
:1005C0002CC056FC2AC0812F90E08C159D059CF014
:1005D0008CEFC8168FEFD80674F0952D9068592EC1
:1005E0000AC0E2E0F0E0EC0FFD1FE10FF11D808199
:1005F000803319F411501111F4CF57FE0EC022248C
:100600002394210E812F90E0C816D9062CF41C19D2
:1006100004C02224239401C010E057FE06C01C141D
:100620001D0434F4C601019605C085E090E002C0C7
:1006300081E090E001110196112331F0212F30E08B
:100640002F5F3F4F820F931F232D30E082179307B8
:1006500014F4381A01C0312C852D897049F43320E7
:1006600039F0B70180E290E00E948D0A3A94F7CF0A
:10067000002329F0B701802F90E00E948D0A53FCDF
:1006800009C0332039F0B70180E390E00E948D0A61
:100690003A94F7CF57FE4DC02601D7FE02C0412C39
:1006A000512CC6010196841995099401280F391F10
:1006B0003E872D87960122193109388B2F87012F0C
:1006C00010E01195019511093FEF4316530629F4E7
:1006D000B7018EE290E00E948D0AC414D5044CF05C
:1006E0002F8538892415350524F4ED85FE85808114
:1006F00001C080E3F1E04F1A51082D853E852F5F40
:100700003F4F3E872D87401651062CF0B70190E0F1
:100710000E948D0AD9CFC414D50441F49A8196332E
:1007200020F4953319F43C8534FF81E3B70190E060
:100730004EC08A81813319F02C852F7E2C87B7011A
:1007400090E00E948D0A111105C054FC18C085E686
:1007500090E017C0B7018EE290E00E948D0A1E5F04
:1007600082E001E0080FF401E80FF11D8081B7017C
:1007700090E00E948D0A802F0113F3CFE6CF85E42D
:1007800090E0B7010E948D0AD7FC06C0C114D104C5
:1007900041F43C8534FF05C0D194C194D1088DE269
:1007A00001C08BE2B70190E00E948D0A80E3EAE08D
:1007B000CE16D1042CF08F5F9AE0C91AD108F7CF7A
:1007C000B70190E00E948D0AB701C601C0960E9451
:1007D0008D0A56C1833631F0833779F0833509F0BD
:1007E00058C021C05601F2E0AF0EB11CF601808165
:1007F000898301E010E0640114C05601F2E0AF0EFD
:10080000B11CF601C080D18026FF03C0612F70E0CB
:1008100002C06FEF7FEFC601298B0E94820A8C0114
:1008200029892F7715C05601F2E0AF0EB11CF601F1
:10083000C080D18026FF03C0612F70E002C06FEF3F
:100840007FEFC601298B0E94770A8C0129892068D5
:10085000522E23FD1AC0832D90E008171907A8F423
:10086000B70180E290E00E948D0A3A94F4CFF6013D
:1008700057FC859157FE81916F01B70190E00E946E
:100880008D0A31103A94015011090115110579F7BB
:10089000F7C0843611F0893659F5560127FF09C093
:1008A000F4E0AF0EB11CF601608171818281938109
:1008B0000AC0F2E0AF0EB11CF60160817181072E13
:1008C000000C880B990B2F76522E97FF09C090953C
:1008D0008095709561957F4F8F4F9F4F2068522E66
:1008E0002AE030E0A4010E94BD0AC82EC8183FC00B
:1008F000022F853721F40F7E2AE030E01DC0097FEA
:100900008F3691F018F4883559F0C4C0803719F04B
:10091000883711F0BFC0006104FF09C0046007C040
:1009200024FF08C0066006C028E030E005C020E1D2
:1009300030E002C020E132E0560107FF09C0F4E0D8
:10094000AF0EB11CF601608171818281938108C074
:10095000F2E0AF0EB11CF6016081718180E090E0A1
:10096000A4010E94BD0AC82EC8180F77502E56FE4B
:100970000BC0052D0E7FC11650F454FE0AC052FC68
:1009800008C0052D0E7E05C0DC2C052D03C0DC2C17
:1009900001C0D12E04FF0DC0FE01EC0DF11D8081C0
:1009A000803311F4097E09C002FF06C0D394D394AA
:1009B00004C0802F867809F0D39403FD11C000FF96
:1009C00006C0D31488F43C0C132D1D190EC0D3148B
:1009D00060F4B70180E290E00E948D0AD394F7CFD3
:1009E000D31418F43D1802C01C2D312C04FF10C084
:1009F000B70180E390E00E948D0A02FF17C001FD5D
:100A000003C088E790E002C088E590E0B7010CC021
:100A1000802F867859F001FF02C08BE201C080E28E
:100A200007FD8DE2B70190E00E948D0AC11638F4EF
:100A3000B70180E390E00E948D0A1150F7CFCA946D
:100A4000F401EC0DF11D8081B70190E00E948D0A48
:100A5000C110F5CF15C0F4E0F31560F584E0381A45
:100A600053FE1FC0011127C03C8533FF2AC00CEA8A
:100A700010E0852D8071582EF8018491811124C0D9
:100A8000332009F4F1CCB70180E290E00E948D0A96
:100A90003A94F6CFF7018681978126C08FEF9FEFBA
:100AA00023C0B70180E290E00E948D0A3A94311091
:100AB000F8CFD8CF312CB701802F90E00E948D0A5B
:100AC000D3CF00EB10E0D5CF51108052B70190E0AA
:100AD0000E948D0A0F5F1F4FCFCF23E0231510F424
:100AE00083E0BDCF312CC0CF6196E2E10C94840944
:100AF000CF93DF9360E080E00E94C107CAE2D1E0BB
:100B0000699181E00E94660783E0C232D807C1F78D
:100B1000DF91CF910895EAE2F1E0119283E0E232B1
:100B2000F807D9F708958435D8F46033C8F4E62F70
:100B3000E695E695E695677094E5E99FF001112446
:100B400090E0E80FF91FE65DFE4F442351F021E0ED
:100B500030E001C0220F6A95EAF78081822B808302
:100B6000089581E090E001C0880F6A95EAF78095CA
:100B700090818923F4CF2F923F924F925F926F9290
:100B80007F928F929F92AF92BF92CF92DF92EF921D
:100B9000FF920F931F93CF93DF93CDB7DEB72D97BF
:100BA0000FB6F894DEBF0FBECDBFF82E262ED42E82
:100BB000E22E84132FC0C62ED12C022F10E02E144B
:100BC000E8F40C151D050CF00AC12D960FB6F8942B
:100BD000DEBF0FBECDBFDF91CF911F910F91FF9070
:100BE000EF90DF90CF90BF90AF909F908F907F90CD
:100BF0006F905F904F903F902F900895C016D10650
:100C000024F341E06C2D8F2D0E949305E1E0CE1A74
:100C1000D108D5CF082F10E0242F30E03D872C8756
:100C20006E111DC0FD1468F48C859D858017910799
:100C300064F241E0622D802F0E9493050F5F1F4FE9
:100C4000F1CFEC85FD850E171F070CF4BECF41E0F8
:100C5000622D802F0E94930501501109E3CF6C850E
:100C60007D85601B710B072E000C880B990B0E9471
:100C7000B3082B013C012E2D30E03E832D83312C17
:100C8000B90162197309072E000C880B990B0E9499
:100C9000B3084B015C01A30192010E943F086983E4
:100CA0007A838B839C8320E030E0A9010E94630952
:100CB00087FF0BC0A3019201C501B40190580E94A7
:100CC0003F0869837A838B839C83C12CD12C760166
:100CD00020E030E0A901C301B2010E9463091816A7
:100CE0000CF076C02C853D85201731070CF46DCFB4
:100CF0000B8741E0622D802F0E94930529813A8164
:100D00004B815C81C701B6010E94CE076B017C015B
:100D100020E030E040E05FE30E94630987FF0DC000
:100D200020E030E0A901C301B2010E946309181656
:100D30000CF44BC001501109CBCF20E030E0A901E9
:100D4000C501B4010E9463091816CCF58D819E81FE
:100D5000821593052CF341E0622D8B850E9493054B
:100D600081E090E098878F8320E030E0A901C50101
:100D7000B4010E946309181614F018861F82E1E07E
:100D8000F0E0FA87E98720E030E0A901C501B4016D
:100D90000E943A0887FD02C01A8619868F819885BD
:100DA00029853A85821B930B280E391E20E030E0FE
:100DB00040E85FE3C701B6010E94CD07A7CFED81F0
:100DC000FE812E163F063CF6ABCF0F5F1F4F80CF44
:100DD0008C859D85081719070CF08ACFF6CE41E067
:100DE0006C2D8F2D0E9493059FEFC91AD90AE7CE6B
:100DF0007F928F929F92AF92BF92CF92DF92EF92AB
:100E0000FF920F931F93CF93DF93882E762E50E09F
:100E10004052510985E0849F6001859FD00C1124C8
:100E200000E010E0AA24A394B12CC601800F911F0A
:100E30009C0122553E4F7901C0E0D0E0982C900EE5
:100E400018C0F7018491A5010C2E02C0440F551F54
:100E50000A94E2F790E0482359230C2E02C05595DE
:100E600047950A94E2F76C2F670D892D0E94930530
:100E70002196C830D10529F70F5F1F4F05301105A6
:100E8000A1F6DF91CF911F910F91FF90EF90DF902E
:100E9000CF90BF90AF909F908F907F9008950F93C9
:100EA0001F93CF93DF93C82FD62F8A01F80141916A
:100EB0008F01411105C0DF91CF911F910F910895CE
:100EC0006D2F8C2F0E94F806CB5FF0CF95B19F7DE0
:100ED00040E2849F90011124922B95B95F9887E09E
:100EE00090E070E08F989B01082E02C03595279501
:100EF0000A94E2F720FF06C02E9A8F9A019790F786
:100F00005F9A08952E98F9CFCF93C82F579A249AB5
:100F1000259A269A879A2C985F9A2C9A61E280E00B
:100F20000E9466076C2F606880E00E94660764E09C
:100F300080E00E94660763E180E00E9466076CE043
:100F400080E00E94660760E280E00E9466076CE035
:100F500080E00E94660760E480E00E94660760E827
:100F600080E0CF910C946607CF93DF93C8EFD1E078
:100F700060E081E00E9466072197D1F7DF91CF9171
:100F80000895CF93C82F606480E00E9466076C2F9D
:100F9000606880E0CF910C9466075058BB27AA2761
:100FA0000E94E5070C9429090E941B0938F00E9451
:100FB000220920F039F49F3F19F426F40C94180903
:100FC0000EF4E095E7FB0C941209E92F0E943A0910
:100FD00058F3BA17620773078407950720F079F46E
:100FE000A6F50C945C090EF4E0950B2EBA2FA02DFB
:100FF0000B01B90190010C01CA01A0011124FF27C6
:10100000591B99F0593F50F4503E68F11A16F040C0
:10101000A22F232F342F4427585FF3CF46953795BF
:101020002795A795F0405395C9F77EF41F16BA0B84
:10103000620B730B840BBAF09150A1F0FF0FBB1F32
:10104000661F771F881FC2F70EC0BA0F621F731F7B
:10105000841F48F4879577956795B795F7959E3FD8
:1010600008F0B0CF9395880F08F09927EE0F979569
:10107000879508950E94EE0808F481E008950E9483
:1010800053080C9429090E94220958F00E941B0958
:1010900040F029F45F3F29F00C94120951110C948F
:1010A0005D090C9418090E943A0968F39923B1F379
:1010B000552391F3951B550BBB27AA27621773077E
:1010C000840738F09F5F5F4F220F331F441FAA1F12
:1010D000A9F335D00E2E3AF0E0E832D091505040CE
:1010E000E695001CCAF72BD0FE2F29D0660F771F7C
:1010F000881FBB1F261737074807AB07B0E809F062
:10110000BB0B802DBF01FF2793585F4F3AF09E3FE6
:10111000510578F00C9412090C945D095F3FE4F3DB
:10112000983ED4F3869577956795B795F7959F5F29
:10113000C9F7880F911D9695879597F90895E1E075
:10114000660F771F881FBB1F621773078407BA07D4
:1011500020F0621B730B840BBA0BEE1F88F7E0952F
:101160000895E89409C097FB3EF49095809570959A
:1011700061957F4F8F4F9F4F9923A9F0F92F96E9E3
:10118000BB279395F695879577956795B795F11158
:10119000F8CFFAF4BB0F11F460FF1BC06F5F7F4FF5
:1011A0008F4F9F4F16C0882311F096E911C0772307
:1011B00021F09EE8872F762F05C0662371F096E810
:1011C000862F70E060E02AF09A95660F771F881FDF
:1011D000DAF7880F9695879597F90895990F000883
:1011E000550FAA0BE0E8FEEF16161706E807F907F9
:1011F000C0F012161306E407F50798F0621B730B94
:10120000840B950B39F40A2661F0232B242B252B14
:1012100021F408950A2609F4A140A6958FEF811DB7
:10122000811D089597F99F6780E870E060E0089558
:101230009FEF80EC089500240A94161617061806EE
:101240000906089500240A941216130614060506CA
:101250000895092E0394000C11F4882352F0BB0F5B
:1012600040F4BF2B11F460FF04C06F5F7F4F8F4FBE
:101270009F4F089557FD9058440F551F59F05F3FF9
:1012800071F04795880F97FB991F61F09F3F79F0A8
:1012900087950895121613061406551FF2CF46952A
:1012A000F1DF08C0161617061806991FF1CF8695AC
:1012B0007105610508940895E894BB276627772790
:1012C000CB0197F908950E94EE0808F48FEF089576
:1012D0002F923F924F925F926F927F928F929F9246
:1012E000AF92BF92CF92DF92EF92FF920F931F9334
:1012F000CF93DF93CDB7DEB7CA1BDB0B0FB6F894E5
:10130000DEBF0FBECDBF09942A88398848885F8424
:101310006E847D848C849B84AA84B984C884DF8095
:10132000EE80FD800C811B81AA81B981CE0FD11D79
:101330000FB6F894DEBF0FBECDBFED010895283083
:1013400008F027E03327DA01990F311D87FD9160FE
:1013500000966105710539F432602E5F3D9330E3EC
:101360002A95E1F708959F3F30F0803871056105B7
:1013700009F03C5F3C5F3D93913008F08068911D1F
:10138000DF93CF931F930F93FF92EF92192F987FC4
:101390009695E92F96959695E90FFF27E25FFE4F08
:1013A00099273327EE24FF24A701E701059008942D
:1013B000079428F4360FE71EF81E491F511D660FCB
:1013C000771F881F991F0694A1F70590079428F4AA
:1013D000E70EF81E491F561FC11D770F881F991F62
:1013E000661F0694A1F70590079428F4F80E491F8C
:1013F000561FC71FD11D880F991F661F771F0694A0
:10140000A1F70590079420F4490F561FC71FD81F56
:10141000990F661F771F881F0694A9F7849110956E
:10142000177041F0D695C79557954795F794E7946F
:101430001A95C1F7E4EBF0E0689415901591359199
:101440006591959105907FE27395E118F10A430B40
:10145000560BC90BD009C0F7E10CF11E431F561FF4
:10146000C91FD01D7EF4703311F48A95E6CFE8943D
:10147000015030F0080F0AF40027021708F4202F5B
:101480002395022F7A3328F079E37D932A95E9F7A3
:1014900010C07D932A9589F60694979567953795A0
:1014A00017951794E118F10A430B560BC90BD00995
:1014B00098F023957E9173957A3308F070E37C93CE
:1014C0002013B8F77E9170617D9330F0839571E3BE
:1014D0007D9370E32A95E1F71124EF90FF900F912F
:1014E0001F91CF91DF91992787FD90950895FC0179
:1014F0000590615070400110D8F7809590958E0F3F
:101500009F1F0895FC016150704001900110D8F7B1
:10151000809590958E0F9F1F08950F931F93CF93E3
:10152000DF93182F092FEB018B8181FD03C08FEF13
:101530009FEF1EC082FF0FC02E813F818C819D8155
:101540002817390774F4E881F981CF01019699834E
:101550008883108306C0E885F985812F0995892B3A
:1015600031F78E819F8101969F838E83812F902FEB
:10157000DF91CF911F910F910895FA01AA2728308A
:1015800051F1203181F1E8946F936E7F6E5F7F4F50
:101590008F4F9F4FAF4FB1E03ED0B4E03CD0670FCC
:1015A000781F891F9A1FA11D680F791F8A1F911D1F
:1015B000A11D6A0F711D811D911DA11D20D009F46F
:1015C00068943F912AE0269F11243019305D3193B1
:1015D000DEF6CF010895462F4770405D4193B3E09A
:1015E0000FD0C9F7F6CF462F4F70405D4A3318F041
:1015F000495D31FD4052419302D0A9F7EACFB4E0F2
:10160000A6959795879577956795BA95C9F70097A9
:101610006105710508959B01AC010A2E069457954A
:10162000479537952795BA95C9F7620F731F841FA1
:0A163000951FA01D0895F894FFCF48
:10163A004D6963726F636F6E74726F6C6C65720062
:10164A0066756E20626567696E7321004861707005
:0A165A0079204861636B696E670038
:00000001FF
