:100000000C94D7000C94E1000C94E1000C94E100F6
:100010000C94E1000C94E1000C94E1000C94E100DC
:100020000C94E1000C94E1000C94E1000C94E100CC
:100030000C94E1000C94E1000C94E1000C94E100BC
:100040000C94E1000C94E1000C94E1000C94E100AC
:100050000C94E1000C94E1000C94E1000C94E1009C
:100060000C94E1000C94E1000C94E1000C94E1008C
:100070000C94E1000C94E1000C94E1000C94E1007C
:100080000C94E1000C94E1000C94E1000C94E1006C
:100090000C94E1000C94E1000C94E1000C94E1005C
:1000A0000C94E1000C94E1000C94E1006E616E0090
:1000B000696E660000407A10F35A00A0724E18096B
:1000C0000010A5D4E80000E87648170000E40B54BF
:1000D000020000CA9A3B000000E1F505000080968E
:1000E0009800000040420F000000A08601000000C0
:1000F000102700000000E80300000000640000007A
:1001000000000A00000000000100000000002C7642
:10011000D888DC674F0823DFC1DFAE59E1B1B7965D
:10012000E5E3E453C63AE651997696E8E6C28426BA
:10013000EB898C9B62ED407C6FFCEFBC9C9F40F296
:10014000BAA56FA5F490055A2AF75C936B6CF96712
:100150006DC11BFCE0E40D47FEF520E6B500D0EDD7
:10016000902E0300943577050080841E080000203F
:100170004E0A000000C80C333333330F986E1283DD
:100180001141EF8D2114893BE65516CFFEE6DB18B1
:10019000D1844B381BF77C1D901DA4BBE424203276
:1001A00084725E228100C9F124ECA1E53D2711246F
:1001B0001FBECFEFDAE0DEBFCDBF0E94E3000C949C
:1001C00010060C940000229A80B38F6D80BB7D9B3B
:1001D00002C02A9AFCCF15B8FACFA1E1B0E0E3EF54
:1001E000F0E00C945D047C013B016A01FC01178284
:1001F0001682838181FF37C39E012F5F3F4F4901E4
:10020000F7019381F30193FD859193FF81913F0164
:10021000882309F424C3853239F493FD859193FF33
:1002200081913F01853239F4B70190E00E94820547
:1002300056016501E5CF10E0312C20E02032A0F41A
:100240008B3269F030F4803259F0833269F42061E6
:100250002CC08D3239F0803339F4216026C0226001
:10026000246023C0286021C027FD27C030ED380F4F
:100270003A3078F426FF06C0FAE01F9F300D1124B3
:10028000132F13C08AE0389E300D1124332E2062C4
:100290000CC08E3221F426FDE2C2206406C08C36EA
:1002A00011F4206802C0883641F4F30193FD859172
:1002B00093FF81913F018111C1CF9BEB980F933048
:1002C00018F42061805E06C09BE9980F933008F017
:1002D00066C12F7E26FF16E02F73522E853619F445
:1002E0002064522E08C0863621F4922F9068592E31
:1002F00002C01111115057FE07C01C3350F42224C4
:100300002394210E27E00BC0183038F027E017E0C7
:1003100005C027E09CE3292E02C0212F212C560185
:10032000E4E0AE0EB11CF60160817181828193819F
:10033000022DA4010E9494046C0129812C8720FFC6
:1003400002C023FF06C051FC06C052FE06C000E2F8
:1003500005C00DE203C00BE201C000E08C858C708B
:1003600019F001115DC29EC257FE10C02C0C2C85E5
:1003700024FF04C08A81813309F42A94121474F58D
:1003800038E0321578F588E0282E2CC056FC2AC0BB
:10039000812F90E08C159D059CF08CEFC8168FEF97
:1003A000D80674F0952D9068592E0AC0E2E0F0E06E
:1003B000EC0FFD1FE10FF11D8081803319F4115006
:1003C0001111F4CF57FE0EC022242394210E812F49
:1003D00090E0C816D9062CF41C1904C022242394DA
:1003E00001C010E057FE06C01C141D0434F4C60101
:1003F000019605C085E090E002C081E090E0011127
:100400000196112331F0212F30E02F5F3F4F820FF3
:10041000931F232D30E08217930714F4381A01C07C
:10042000312C852D897049F4332039F0B70180E2F1
:1004300090E00E9482053A94F7CF002329F0B7019B
:10044000802F90E00E94820553FC09C0332039F0D0
:10045000B70180E390E00E9482053A94F7CF57FEFF
:100460004DC02601D7FE02C0412C512CC601019679
:10047000841995099401280F391F3E872D8796010D
:1004800022193109388B2F87012F10E01195019522
:1004900011093FEF4316530629F4B7018EE290E0AD
:1004A0000E948205C414D5044CF02F853889241588
:1004B000350524F4ED85FE85808101C080E3F1E0FF
:1004C0004F1A51082D853E852F5F3F4F3E872D8760
:1004D000401651062CF0B70190E00E948205D9CF5A
:1004E000C414D50441F49A81963320F4953319F459
:1004F0003C8534FF81E3B70190E04EC08A818133AF
:1005000019F02C852F7E2C87B70190E00E94820580
:10051000111105C054FC18C085E690E017C0B70162
:100520008EE290E00E9482051E5F82E001E0080FEB
:10053000F401E80FF11D8081B70190E00E9482056F
:10054000802F0113F3CFE6CF85E490E0B7010E943E
:100550008205D7FC06C0C114D10441F43C8534FFA8
:1005600005C0D194C194D1088DE201C08BE2B701DE
:1005700090E00E94820580E3EAE0CE16D1042CF0E0
:100580008F5F9AE0C91AD108F7CFB70190E00E94B7
:100590008205B701C601C0960E94820556C1833606
:1005A00031F0833779F0833509F058C021C0560106
:1005B000F2E0AF0EB11CF6018081898301E010E00A
:1005C000640114C05601F2E0AF0EB11CF601C08008
:1005D000D18026FF03C0612F70E002C06FEF7FEF74
:1005E000C601298B0E9477058C0129892F7715C0B8
:1005F0005601F2E0AF0EB11CF601C080D18026FF9B
:1006000003C0612F70E002C06FEF7FEFC601298B3E
:100610000E946C058C0129892068522E23FD1AC086
:10062000832D90E008171907A8F4B70180E290E045
:100630000E9482053A94F4CFF60157FC859157FE4B
:1006400081916F01B70190E00E94820531103A94C8
:10065000015011090115110579F7F7C0843611F021
:10066000893659F5560127FF09C0F4E0AF0EB11CD9
:10067000F60160817181828193810AC0F2E0AF0E40
:10068000B11CF60160817181072E000C880B990B5B
:100690002F76522E97FF09C09095809570956195A1
:1006A0007F4F8F4F9F4F2068522E2AE030E0A401E9
:1006B0000E94B205C82EC8183FC0022F853721F40A
:1006C0000F7E2AE030E01DC0097F8F3691F018F4CC
:1006D000883559F0C4C0803719F0883711F0BFC091
:1006E000006104FF09C0046007C024FF08C0066061
:1006F00006C028E030E005C020E130E002C020E183
:1007000032E0560107FF09C0F4E0AF0EB11CF6015C
:10071000608171818281938108C0F2E0AF0EB11CCB
:10072000F6016081718180E090E0A4010E94B20531
:10073000C82EC8180F77502E56FE0BC0052D0E7F01
:10074000C11650F454FE0AC052FC08C0052D0E7E9E
:1007500005C0DC2C052D03C0DC2C01C0D12E04FF0C
:100760000DC0FE01EC0DF11D8081803311F4097E76
:1007700009C002FF06C0D394D39404C0802F8678AA
:1007800009F0D39403FD11C000FF06C0D31488F410
:100790003C0C132D1D190EC0D31460F4B70180E278
:1007A00090E00E948205D394F7CFD31418F43D183B
:1007B00002C01C2D312C04FF10C0B70180E390E073
:1007C0000E94820502FF17C001FD03C088E790E088
:1007D00002C088E590E0B7010CC0802F867859F000
:1007E00001FF02C08BE201C080E207FD8DE2B7018C
:1007F00090E00E948205C11638F4B70180E390E0D2
:100800000E9482051150F7CFCA94F401EC0DF11D3E
:100810008081B70190E00E948205C110F5CF15C01C
:10082000F4E0F31560F584E0381A53FE1FC001119F
:1008300027C03C8533FF2AC00CEA10E0852D80716B
:10084000582EF8018491811124C0332009F4F1CC91
:10085000B70180E290E00E9482053A94F6CFF7015A
:100860008681978126C08FEF9FEF23C0B70180E27A
:1008700090E00E9482053A943110F8CFD8CF312C05
:10088000B701802F90E00E948205D3CF00EB10E0EB
:10089000D5CF51108052B70190E00E9482050F5FC2
:1008A0001F4FCFCF23E0231510F483E0BDCF312CB1
:1008B000C0CF6196E2E10C9479042F923F924F925F
:1008C0005F926F927F928F929F92AF92BF92CF92E0
:1008D000DF92EF92FF920F931F93CF93DF93CDB7E9
:1008E000DEB7CA1BDB0B0FB6F894DEBF0FBECDBF61
:1008F00009942A88398848885F846E847D848C8432
:100900009B84AA84B984C884DF80EE80FD800C813A
:100910001B81AA81B981CE0FD11D0FB6F894DEBF1D
:100920000FBECDBFED010895283008F027E0332732
:10093000DA01990F311D87FD9160009661057105FF
:1009400039F432602E5F3D9330E32A95E1F7089544
:100950009F3F30F080387105610509F03C5F3C5FD6
:100960003D93913008F08068911DDF93CF931F93E2
:100970000F93FF92EF92192F987F9695E92F9695F6
:100980009695E90FFF27E25FFE4F99273327EE2464
:10099000FF24A701E70105900894079428F4360F77
:1009A000E71EF81E491F511D660F771F881F991FEC
:1009B0000694A1F70590079428F4E70EF81E491F46
:1009C000561FC11D770F881F991F661F0694A1F738
:1009D0000590079428F4F80E491F561FC71FD11D14
:1009E000880F991F661F771F0694A1F7059007943B
:1009F00020F4490F561FC71FD81F990F661F771F76
:100A0000881F0694A9F784911095177041F0D69528
:100A1000C79557954795F794E7941A95C1F7E4EB76
:100A2000F0E0689415901591359165919591059038
:100A30007FE27395E118F10A430B560BC90BD009FD
:100A4000C0F7E10CF11E431F561FC91FD01D7EF4D5
:100A5000703311F48A95E6CFE894015030F0080F16
:100A60000AF40027021708F4202F2395022F7A3367
:100A700028F079E37D932A95E9F710C07D932A95B4
:100A800089F6069497956795379517951794E11809
:100A9000F10A430B560BC90BD00998F023957E91B0
:100AA00073957A3308F070E37C932013B8F77E9146
:100AB00070617D9330F0839571E37D9370E32A95A7
:100AC000E1F71124EF90FF900F911F91CF91DF91EB
:100AD000992787FD90950895FC010590615070401D
:100AE0000110D8F7809590958E0F9F1F0895FC01F7
:100AF0006150704001900110D8F7809590958E0F4D
:100B00009F1F08950F931F93CF93DF93182F092FE3
:100B1000EB018B8181FD03C08FEF9FEF1EC082FF31
:100B20000FC02E813F818C819D812817390774F475
:100B3000E881F981CF01019699838883108306C0EB
:100B4000E885F985812F0995892B31F78E819F8161
:100B500001969F838E83812F902FDF91CF911F91DC
:100B60000F910895FA01AA27283051F1203181F11F
:100B7000E8946F936E7F6E5F7F4F8F4F9F4FAF4FA5
:100B8000B1E03ED0B4E03CD0670F781F891F9A1FB8
:100B9000A11D680F791F8A1F911DA11D6A0F711D6C
:100BA000811D911DA11D20D009F468943F912AE078
:100BB000269F11243019305D3193DEF6CF01089560
:100BC000462F4770405D4193B3E00FD0C9F7F6CF91
:100BD000462F4F70405D4A3318F0495D31FD405259
:100BE000419302D0A9F7EACFB4E0A69597958795EF
:100BF00077956795BA95C9F70097610571050895CE
:100C00009B01AC010A2E0694579547953795279579
:100C1000BA95C9F7620F731F841F951FA01D089511
:040C2000F894FFCF76
:00000001FF
