:100000000C94D7000C94F4000C94F4000C94F400BD
:100010000C94F4000C94F4000C94F4000C94F40090
:100020000C94F4000C94F4000C94F4000C94F40080
:100030000C94F4000C94F4000C94F4000C94F40070
:100040000C94F4000C94F4000C94F4000C94F40060
:100050000C94F4000C94F4000C94F4000C94F40050
:100060000C94F4000C94F4000C94F4000C94F40040
:100070000C94F4000C94F4000C94F4000C94F40030
:100080000C94F4000C94F4000C94F4000C94F40020
:100090000C94F4000C94F4000C94F4000C94F40010
:1000A0000C94F4000C94F4000C94F4006E616E0057
:1000B000696E660000407A10F35A00A0724E18096B
:1000C0000010A5D4E80000E87648170000E40B54BF
:1000D000020000CA9A3B000000E1F505000080968E
:1000E0009800000040420F000000A08601000000C0
:1000F000102700000000E80300000000640000007A
:1001000000000A00000000000100000000002C7642
:10011000D888DC674F0823DFC1DFAE59E1B1B7965D
:10012000E5E3E453C63AE651997696E8E6C28426BA
:10013000EB898C9B62ED407C6FFCEFBC9C9F40F296
:10014000BAA56FA5F490055A2AF75C936B6CF96712
:100150006DC11BFCE0E40D47FEF520E6B500D0EDD7
:10016000902E0300943577050080841E080000203F
:100170004E0A000000C80C333333330F986E1283DD
:100180001141EF8D2114893BE65516CFFEE6DB18B1
:10019000D1844B381BF77C1D901DA4BBE424203276
:1001A00084725E228100C9F124ECA1E53D2711246F
:1001B0001FBECFEFDAE0DEBFCDBF18E0A0E0B1E0B8
:1001C000ECE7F5E102C005900D92A432B107D9F732
:1001D00028E0A4E2B8E001C01D92AE32B207E1F718
:1001E0000E946D010C94BC0A0C94000080E00895FC
:1001F0008E7F089580E0089580E0089580E008955E
:1002000080E0089580E0089580E0089580E00895FA
:1002100080E00895FF920F931F93CF93DF93CDB7A4
:10022000DEB7C055D1090FB6F894DEBF0FBECDBF03
:100230008B01FE01319620E030E070E0FE2E9F2F12
:1002400060E22F343105C9F461961FAE61972F5FCC
:100250003F4F319620353105A1F78F2D0E94A90916
:10026000C05BDF4F0FB6F894DEBF0FBECDBFDF918E
:10027000CF911F910F91FF9008950115110511F471
:100280008083E5CF4217530711F46083E0CF421714
:100290005307B4F77111F4CFD901A41BB50B119713
:1002A000A00FB11FAC91A11103C0608371E0CFCF4B
:1002B000A083CDCFFC010FB6F89460912A0870910D
:1002C0002B0880912C0890912D080FBE309721F0BB
:1002D000608371838283938308952F923F924F921C
:1002E0005F926F927F928F929F92AF92BF92CF92C6
:1002F000DF92EF92FF920F931F93CF93DF93CDB7CF
:10030000DEB7CE55D1090FB6F894DEBF0FBECDBF14
:10031000CE01855A9F4F0E945A01CB010E945C0872
:1003200040E050E060E070E08EE70E940A014AE1A0
:1003300050E064E171E08EE70E940A0140E050E085
:1003400060E070E08EE70E940A018AE090E00E947F
:10035000A209812C912CA8E0EA2EF12CAA24A394C6
:10036000B12C05EB11E0C12CDD24D394F4013197BD
:10037000EE16FF0678F0EF53FE4F45E050E00C9488
:10038000BA07FE01320265029A02B902E9021503B8
:10039000E6030E0445E050E060E371E08EE20E9467
:1003A0000A018CE391E00E94A909F2E36F2E712CFF
:1003B0000E945708B7010E94A607950102C0220FAC
:1003C000331F8A95E2F7C90131E0211101C030E005
:1003D00062963FAF629721110EC031E0631A710837
:1003E00039F72CE031E03F932F931F921F9299270A
:1003F0009F938F9331C024E031E0F5CF69EE71E037
:100400008EE20E940A0185EF91E00E94A909E2E3D1
:100410006E2E712C0E945708B7010E94A607950105
:10042000082E01C0220F0A94EAF720958E7F91E0F2
:10043000281301C090E063969FAF639728130FC005
:1004400091E0691A710831F74CE051E05F934F93E6
:100450001F928F931F922F931F930F932CC144E0F1
:1004600051E0F4CF6EE672E08EE20E940A018AE764
:1004700092E00E94A90972E3472E512C0E9457086E
:100480003C010E945708FC01C301B7010E94A60766
:10049000950101C0220F8A95EAF7CF01B6010E94AB
:1004A000A607282B81E009F480E064968FAF64975B
:1004B00021118CC0B1E04B1A510801F78CE091E09A
:1004C0009F938F931F921F92C5CF65E073E08EE2DA
:1004D0000E940A0181E193E00E94A90962E3462E8D
:1004E000512C0E9457083C010E9457089C01C301EF
:1004F000B7010E94A607A50101C0440F8A95EAF73B
:100500004095C901B6010E94A607842391E009F431
:1005100090E065969FAF65978111A2C131E0431AC3
:100520005108F9F62CE031E03F932F931F921F9270
:100530001F925FCF60EA73E08EE20E940A018CEAAC
:1005400093E00E94A90952E3652E712C0E9457087E
:10055000B6010E94A607809591E009F490E06696A6
:100560009FAF669781117CC191E0691A710871F79C
:10057000D9CF6EEF73E08EE20E940A018AE094E028
:100580000E94A90942E3442E512C0E9457083C01C5
:100590000E945708FC01C301B7010E94A6079501FC
:1005A00001C0220F8A95EAF7CF01B6010E94A60783
:1005B000282781E009F480E067968FAF67972111C3
:1005C00005C0B1E04B1A510801F778CF84E091E003
:1005D00077CF69E974E08EE20E940A0185EA94E02F
:1005E0000E94A90932E3432E512C0E9457083C0176
:1005F0000E945708B6010E94A6079C013327C30139
:10060000B7010E94A60702C0359527958A95E2F7A3
:10061000217068962FAF6897211141C031E0431ACD
:10062000510819F78CE091E03CC065E475E08EE27A
:100630000E940A0181E595E00E94A90922E3222E89
:10064000312C0E9457083C010E9457082C010E943F
:100650005708FC01C301B7010E94A607950102C01B
:10066000220F331F8A95E2F7CF01B6010E94A60739
:10067000282B20953095C201B7010E94A60702C021
:10068000359527958A95E2F7217069962FAF69977E
:10069000211105C091E0291A310899F6C3CF84E0F1
:1006A00091E09F938F931F921F921F922F93A7E128
:1006B000B5E0BF93AF930E948C090FB6F894DEBFEC
:1006C0000FBECDBF40E050E060E070E08EE20E94DF
:1006D0000A0183E495E00E94A9099FEF891A990A0B
:1006E000AAE08A16910409F041CEFE01EF5AFF4FAD
:1006F0009F01265F3F4FE12CF12C91E081918927EA
:10070000E80EF11C2E173F07C9F740E050E060E00B
:1007100070E08EE70E940A011F928AE08F93FF9299
:10072000EF9289E497E09F938F938E010F5F1F4FA5
:100730001F930F930E94D90940E150E0B8018EE762
:100740000E940A0140E050E060E070E08EE70E9405
:100750000A010FB6F894DEBF0FBECDBF3AE0E31634
:10076000F10409F080C06CE777E0C8010E944A09F3
:1007700064EB77E0C8010E944A094CE050E0B80100
:100780008EE70E940A0140E050E060E070E08EE7F2
:100790000E940A0180E090E0C25ADF4F0FB6F89441
:1007A000DEBF0FBECDBFDF91CF911F910F91FF90A4
:1007B000EF90DF90CF90BF90AF909F908F907F9001
:1007C0006F905F904F903F902F90089568E276E091
:1007D0008EE20E940A0184E396E00E94A90992E356
:1007E000692E712C0E945708B7010E94A607019636
:1007F000AFEFBFEF02C0AA0FBB1F8A95E2F7CD0192
:10080000809591E009F490E06A969FAF6A97811114
:1008100027C0B1E06B1A710829F784CE66EC76E048
:100820008EE20E940A0183ED96E00E94A90982E30C
:10083000682E712C0E945708B6010E94A607829567
:1008400086958695837091E009F490E06B969FAF52
:100850006B97811105C031E0631A710859F762CEB8
:1008600024E031E061CE6CEE77E084CFA1E1B0E02E
:10087000ECE3F4E00C94C0077C013B016A01FC014D
:1008800017821682838181FF37C39E012F5F3F4FFE
:100890004901F7019381F30193FD859193FF8191C4
:1008A0003F01882309F424C3853239F493FD8591EF
:1008B00093FF81913F01853239F4B70190E00E94A6
:1008C0005C0956016501E5CF10E0312C20E02032B3
:1008D000A0F48B3269F030F4803259F0833269F43D
:1008E00020612CC08D3239F0803339F4216026C06C
:1008F0002260246023C0286021C027FD27C030ED7E
:10090000380F3A3078F426FF06C0FAE01F9F300D0A
:100910001124132F13C08AE0389E300D1124332E7A
:1009200020620CC08E3221F426FDE2C2206406C093
:100930008C3611F4206802C0883641F4F30193FD2F
:10094000859193FF81913F018111C1CF9BEB980F5E
:10095000933018F42061805E06C09BE9980F9330B5
:1009600008F066C12F7E26FF16E02F73522E8536C3
:1009700019F42064522E08C0863621F4922F906814
:10098000592E02C01111115057FE07C01C3350F4EC
:1009900022242394210E27E00BC0183038F027E0E2
:1009A00017E005C027E09CE3292E02C0212F212C4F
:1009B0005601E4E0AE0EB11CF601608171818281C6
:1009C0009381022DA4010E9467086C0129812C8764
:1009D00020FF02C023FF06C051FC06C052FE06C025
:1009E00000E205C00DE203C00BE201C000E08C850F
:1009F0008C7019F001115DC29EC257FE10C02C0C04
:100A00002C8524FF04C08A81813309F42A941214AE
:100A100074F538E0321578F588E0282E2CC056FCA5
:100A20002AC0812F90E08C159D059CF08CEFC81694
:100A30008FEFD80674F0952D9068592E0AC0E2E029
:100A4000F0E0EC0FFD1FE10FF11D8081803319F400
:100A500011501111F4CF57FE0EC022242394210E01
:100A6000812F90E0C816D9062CF41C1904C022244A
:100A7000239401C010E057FE06C01C141D0434F47A
:100A8000C601019605C085E090E002C081E090E0DB
:100A900001110196112331F0212F30E02F5F3F4FDC
:100AA000820F931F232D30E08217930714F4381A16
:100AB00001C0312C852D897049F4332039F0B701FC
:100AC00080E290E00E945C093A94F7CF002329F07D
:100AD000B701802F90E00E945C0953FC09C03320CD
:100AE00039F0B70180E390E00E945C093A94F7CFB7
:100AF00057FE4DC02601D7FE02C0412C512CC60125
:100B00000196841995099401280F391F3E872D8776
:100B1000960122193109388B2F87012F10E011958A
:100B2000019511093FEF4316530629F4B7018EE2F0
:100B300090E00E945C09C414D5044CF02F853889DC
:100B40002415350524F4ED85FE85808101C080E300
:100B5000F1E04F1A51082D853E852F5F3F4F3E87AC
:100B60002D87401651062CF0B70190E00E945C09D9
:100B7000D9CFC414D50441F49A81963320F4953327
:100B800019F43C8534FF81E3B70190E04EC08A81BF
:100B9000813319F02C852F7E2C87B70190E00E94BD
:100BA0005C09111105C054FC18C085E690E017C01F
:100BB000B7018EE290E00E945C091E5F82E001E0D6
:100BC000080FF401E80FF11D8081B70190E00E9449
:100BD0005C09802F0113F3CFE6CF85E490E0B701E5
:100BE0000E945C09D7FC06C0C114D10441F43C85C5
:100BF00034FF05C0D194C194D1088DE201C08BE2CD
:100C0000B70190E00E945C0980E3EAE0CE16D104CF
:100C10002CF08F5F9AE0C91AD108F7CFB70190E0A6
:100C20000E945C09B701C601C0960E945C0956C1CA
:100C3000833631F0833779F0833509F058C021C00D
:100C40005601F2E0AF0EB11CF6018081898301E00C
:100C500010E0640114C05601F2E0AF0EB11CF601C1
:100C6000C080D18026FF03C0612F70E002C06FEF0B
:100C70007FEFC601298B0E9451098C0129892F77AA
:100C800015C05601F2E0AF0EB11CF601C080D18054
:100C900026FF03C0612F70E002C06FEF7FEFC60137
:100CA000298B0E943F098C0129892068522E23FD3F
:100CB0001AC0832D90E008171907A8F4B70180E245
:100CC00090E00E945C093A94F4CFF60157FC8591BC
:100CD00057FE81916F01B70190E00E945C093110CD
:100CE0003A94015011090115110579F7F7C08436BE
:100CF00011F0893659F5560127FF09C0F4E0AF0E0F
:100D0000B11CF60160817181828193810AC0F2E099
:100D1000AF0EB11CF60160817181072E000C880BAB
:100D2000990B2F76522E97FF09C09095809570955C
:100D300061957F4F8F4F9F4F2068522E2AE030E001
:100D4000A4010E94FB09C82EC8183FC0022F853796
:100D500021F40F7E2AE030E01DC0097F8F3691F02C
:100D600018F4883559F0C4C0803719F0883711F06D
:100D7000BFC0006104FF09C0046007C024FF08C0B1
:100D8000066006C028E030E005C020E130E002C087
:100D900020E132E0560107FF09C0F4E0AF0EB11CBC
:100DA000F601608171818281938108C0F2E0AF0E0B
:100DB000B11CF6016081718180E090E0A4010E9485
:100DC000FB09C82EC8180F77502E56FE0BC0052DF4
:100DD0000E7FC11650F454FE0AC052FC08C0052D07
:100DE0000E7E05C0DC2C052D03C0DC2C01C0D12EED
:100DF00004FF0DC0FE01EC0DF11D8081803311F464
:100E0000097E09C002FF06C0D394D39404C0802F8A
:100E1000867809F0D39403FD11C000FF06C0D314F7
:100E200088F43C0C132D1D190EC0D31460F4B701C7
:100E300080E290E00E945C09D394F7CFD31418F4B9
:100E40003D1802C01C2D312C04FF10C0B70180E3F7
:100E500090E00E945C0902FF17C001FD03C088E713
:100E600090E002C088E590E0B7010CC0802F867842
:100E700059F001FF02C08BE201C080E207FD8DE264
:100E8000B70190E00E945C09C11638F4B70180E315
:100E900090E00E945C091150F7CFCA94F401EC0D68
:100EA000F11D8081B70190E00E945C09C110F5CF6F
:100EB00015C0F4E0F31560F584E0381A53FE1FC046
:100EC000011127C03C8533FF2AC00CEA10E0852DB4
:100ED0008071582EF8018491811124C0332009F4C7
:100EE000F1CCB70180E290E00E945C093A94F6CF21
:100EF000F7018681978126C08FEF9FEF23C0B7014E
:100F000080E290E00E945C093A943110F8CFD8CF8B
:100F1000312CB701802F90E00E945C09D3CF00EB09
:100F200010E0D5CF51108052B70190E00E945C09CB
:100F30000F5F1F4FCFCF23E0231510F483E0BDCF09
:100F4000312CC0CF6196E2E10C94DC0797FB072EB1
:100F500016F4009407D077FD09D00E94F70707FC2C
:100F600005D03EF4909581959F4F089570956195B9
:100F70007F4F0895EE0FFF1F0590F491E02D099427
:100F80002F923F924F925F926F927F928F929F9299
:100F9000AF92BF92CF92DF92EF92FF920F931F9387
:100FA000CF93DF93CDB7DEB7CA1BDB0B0FB6F89438
:100FB000DEBF0FBECDBF09942A88398848885F8478
:100FC0006E847D848C849B84AA84B984C884DF80E9
:100FD000EE80FD800C811B81AA81B981CE0FD11DCD
:100FE0000FB6F894DEBF0FBECDBFED010895AA1B6A
:100FF000BB1B51E107C0AA1FBB1FA617B70710F004
:10100000A61BB70B881F991F5A95A9F78095909535
:10101000BC01CD0108958F929F92AF92BF92CF9263
:10102000DF92EF92FF92CF93DF93EC016881798199
:101030008A819B81611571058105910521F464E226
:1010400079ED8BE597E02DE133EF41E050E00E9430
:10105000590A49015A019B01AC01A7EAB1E40E9477
:10106000780A6B017C01ACEEB4EFA50194010E94FB
:10107000860ADC01CB018C0D9D1DAE1DBF1DB7FF87
:1010800003C00197A109B04888839983AA83BB83D1
:101090009F77DF91CF91FF90EF90DF90CF90BF903F
:1010A000AF909F908F9008950E940B08089580E064
:1010B00091E00E940B080895A0E0B0E08093000149
:1010C00090930101A0930201B09303010895283089
:1010D00008F027E03327DA01990F311D87FD916071
:1010E00000966105710539F432602E5F3D9330E35F
:1010F0002A95E1F708959F3F30F08038710561052A
:1011000009F03C5F3C5F3D93913008F08068911D91
:10111000DF93CF931F930F93FF92EF92192F987F36
:101120009695E92F96959695E90FFF27E25FFE4F7A
:1011300099273327EE24FF24A701E701059008949F
:10114000079428F4360FE71EF81E491F511D660F3D
:10115000771F881F991F0694A1F70590079428F41C
:10116000E70EF81E491F561FC11D770F881F991FD4
:10117000661F0694A1F70590079428F4F80E491FFE
:10118000561FC71FD11D880F991F661F771F069412
:10119000A1F70590079420F4490F561FC71FD81FC9
:1011A000990F661F771F881F0694A9F784911095E1
:1011B000177041F0D695C79557954795F794E794E2
:1011C0001A95C1F7E4EBF0E068941590159135910C
:1011D0006591959105907FE27395E118F10A430BB3
:1011E000560BC90BD009C0F7E10CF11E431F561F67
:1011F000C91FD01D7EF4703311F48A95E6CFE894B0
:10120000015030F0080F0AF40027021708F4202FCD
:101210002395022F7A3328F079E37D932A95E9F715
:1012200010C07D932A9589F6069497956795379512
:1012300017951794E118F10A430B560BC90BD00907
:1012400098F023957E9173957A3308F070E37C9340
:101250002013B8F77E9170617D9330F0839571E330
:101260007D9370E32A95E1F71124EF90FF900F91A1
:101270001F91CF91DF91992787FD90950895FC01EB
:101280000590615070400110D8F7809590958E0FB1
:101290009F1F0895FB01DC0101900D920020E1F7F2
:1012A0000895FC016150704001900110D8F78095BD
:1012B00090958E0F9F1F08950F931F93CF93DF93E9
:1012C000182F092FEB018B8181FD03C08FEF9FEF5A
:1012D0001EC082FF0FC02E813F818C819D81281707
:1012E000390774F4E881F981CF01019699838883E5
:1012F000108306C0E885F985812F0995892B31F780
:101300008E819F8101969F838E83812F902FDF9105
:10131000CF911F910F910895A0E0B0E0E2E9F9E0CC
:101320000C94D007AE014B5F5F4FFA016191719150
:10133000AF0180912608909127080E943604E2E0D0
:101340000C94EC0760912608709127080E945C09B4
:1013500008950F931F93CF93DF93E0912608F091A8
:101360002708238121FF1BC08C01D0E0C0E0F801D9
:1013700081918F016091260870912708DB011896F2
:10138000ED91FC911997882331F00995892B79F318
:10139000DFEFCFEFECCF8AE00995892B19F08FEFC3
:1013A0009FEF02C08D2F9C2FDF91CF911F910F9146
:1013B0000895AEE0B0E0EFEDF9E00C94CE070D89B2
:1013C0001E8986E08C831A8309838FEF9FE79E83B3
:1013D0008D83AE01475E5F4F6F89788DCE01019698
:1013E0000E943604EF81F885E00FF11F10822E96DF
:1013F000E4E00C94EA07FA01AA27283051F12031E1
:1014000081F1E8946F936E7F6E5F7F4F8F4F9F4F98
:10141000AF4FB1E03ED0B4E03CD0670F781F891FDA
:101420009A1FA11D680F791F8A1F911DA11D6A0FA8
:10143000711D811D911DA11D20D009F468943F915B
:101440002AE0269F11243019305D3193DEF6CF015A
:101450000895462F4770405D4193B3E00FD0C9F720
:10146000F6CF462F4F70405D4A3318F0495D31FD8D
:101470004052419302D0A9F7EACFB4E0A6959795E0
:10148000879577956795BA95C9F7009761057105B6
:1014900008959B01AC010A2E069457954795379500
:1014A0002795BA95C9F7620F731F841F951FA01D5A
:1014B0000895052E97FB1EF400940E94700A57FDB4
:1014C00007D00E948B0A07FC03D04EF40C94700ADC
:1014D00050954095309521953F4F4F4F5F4F089560
:1014E00090958095709561957F4F8F4F9F4F089590
:1014F0000E94AD0AA59F900DB49F900DA49F800DF2
:10150000911D11240895B7FF0C94780A0E94780A5F
:10151000821B930B0895A1E21A2EAA1BBB1BFD018F
:101520000DC0AA1FBB1FEE1FFF1FA217B307E407C2
:10153000F50720F0A21BB30BE40BF50B661F771F1A
:10154000881F991F1A9469F76095709580959095FA
:101550009B01AC01BD01CF010895A29FB001B39FD3
:10156000C001A39F700D811D1124911DB29F700DAC
:0C157000811D1124911D0895F894FFCFF7
:10157C00010000004641494C454421005041535361
:10158C0045442100506C6179696E672077697468F5
:10159C00206269747320616E6420627974657300D3
:1015AC007C50524F424C454D20317C0027616E736C
:1015BC007765725F312829272072656365697665C6
:1015CC0073206120626974206E756D6265722E20C5
:1015DC0052657475726E206120627974652077692A
:1015EC0074682074686520636F72726573706F6EB7
:1015FC0064696E67206269740A7365742C20616E6D
:10160C006420616C6C206F746865722062697473FD
:10161C0020636C65617265642E0A54657374696E1F
:10162C00672E2E2E00457870656374656420726594
:10163C007475726E3A093078253032580909416355
:10164C007475616C2072657475726E3A0930782508
:10165C00303258090925730A007C50524F424C45D0
:10166C004D20327C0027616E737765725F322829BA
:10167C0027207265636569766573206120626974E1
:10168C00206E756D6265722E2052657475726E20B7
:10169C0061206279746520776974682074686520AC
:1016AC00636F72726573706F6E64696E67206269C6
:1016BC00740A636C65617265642C20616E642061D0
:1016CC006C6C206F7468657220626974732073652A
:1016DC00742E0A54657374696E672E2E2E007C501E
:1016EC00524F424C454D20337C0027616E73776519
:1016FC00725F3328292720726563656976657320CC
:10170C0061206279746520616E6420626974206E58
:10171C00756D6265722E2052657475726E207468D8
:10172C00652073616D6520627974652077697468D2
:10173C00207468650A636F72726573706F6E64698A
:10174C006E6720626974207365742C20616E64204E
:10175C00616C6C206F74686572206269747320759B
:10176C006E6368616E6765642E0A54657374696E86
:10177C00672E2E2E007C50524F424C454D20347C0F
:10178C000027616E737765725F3428292720726594
:10179C006365697665732061206279746520616E7A
:1017AC006420626974206E756D6265722E205265BC
:1017BC007475726E207468652073616D6520627932
:1017CC0074652077697468207468650A636F727237
:1017DC006573706F6E64696E672062697420636CE8
:1017EC0065617265642C20616E6420616C6C206F85
:1017FC0074686572206269747320756E6368616EBB
:10180C006765642E0A54657374696E672E2E2E00FC
:10181C007C50524F424C454D20357C0027616E73F5
:10182C007765725F3528292720726563656976654F
:10183C0073206120627974652E2052657475726E06
:10184C0020746865206279746520776974682061FA
:10185C006C6C2038206269747320746F67676C65D8
:10186C00642E0A54657374696E672E2E2E007C509C
:10187C00524F424C454D20367C0027616E73776584
:10188C00725F362829272072656365697665732037
:10189C0061206279746520616E6420626974206EC7
:1018AC00756D6265722E2052657475726E20746847
:1018BC00652073616D652062797465207769746841
:1018CC00207468650A636F72726573706F6E6469F9
:1018DC006E672062697420746F67676C65642C2076
:1018EC00616E6420616C6C206F7468657220626933
:1018FC00747320756E6368616E6765642E0A546537
:10190C007374696E672E2E2E007C50524F424C45DC
:10191C004D20377C0027616E737765725F372829FD
:10192C00272072656365697665732061206279741E
:10193C006520616E6420626974206E756D626572DB
:10194C002E2052657475726E207468652076616CF9
:10195C0075652028736574206F7220756E736574BD
:10196C00290A6F662074686520636F7272657370E4
:10197C006F6E64696E67206269742E0A54657374A5
:10198C00696E672E2E2E0045787065637465642031
:10199C0072657475726E3A0925640909094163749C
:1019AC0075616C2072657475726E3A09256409094B
:1019BC000925730A007C50524F424C454D20387C0F
:1019CC000027616E737765725F382829272072654E
:1019DC006365697665732061206279746520616E38
:1019EC00642074776F20626974206E756D62657205
:1019FC00732E2053657420746865206269742063AB
:101A0C006F72726573706F6E64696E670A746F20A3
:101A1C0074686520666972737420626974206E75CF
:101A2C006D6265722C20746F67676C6520657665D6
:101A3C0072792062697420696E20746865206279FD
:101A4C0074652C207468656E2072657475726E20D6
:101A5C007468652076616C7565206F660A746865BC
:101A6C002062697420636F72726573706F6E646943
:101A7C006E6720746F20746865207365636F6E6485
:101A8C0020626974206E756D6265722E0A546573DE
:101A9C0074696E672E2E2E007C50524F424C454D71
:101AAC0020397C0027616E737765725F392829278E
:101ABC0020726563656976657320612062697420A4
:101ACC006E756D6265722E2052657475726E206132
:101ADC0020627974652077697468206576657279FF
:101AEC002062697420757020746F0A616E642069BD
:101AFC006E636C7564696E672074686174206269CA
:101B0C0074206E756D626572207365742C20776914
:101B1C00746820616C6C206F7468657220626974E3
:101B2C007320636C65617265642E0A546573746905
:101B3C006E672E2E2E007C50524F424C454D20315C
:101B4C00307C0027616E737765725F3130282927EE
:101B5C00207265636569766573206120706F696EAC
:101B6C0074657220746F206120627974652E205226
:101B7C00657475726E207468652064617461206987
:101B8C006E207468652074776F206D6F73740A73A0
:101B9C0069676E69666963616E742062697473202B
:101BAC006F66207468617420627974652E0A5465BE
:101BBC007374696E672E2E2E00596F757220746FB8
:101BCC0074616C2073636F726520666F7220746829
:101BDC00652070726F626C656D73207761733A204B
:101BEC00252E3264202F20252E326400596F75204B
:101BFC006D616E6167656420746F2066696E642028
:101C0C00776865726520616C6C206F6620796F75E2
:101C1C0072206D697373696E6720646174612077DB
:101C2C006173210057656C6C20646F6E652E2059B2
:101C3C006F75277665206D617374657265642070AD
:101C4C006C6179696E672077697468206269747356
:101C5C0020616E6420627974657321004B65657038
:101C6C00206F6E20706C6179696E6720776974687B
:101C7C00206D79206269747320756E74696C20799B
:101C8C006F7520676574207468656D20616C6C20BD
:041C9C002E2E2E00BA
:00000001FF
